{
  "contracts/OrderStore.sol": {
    "OrderStore": {
      "abi": [
        {
          "inputs": [],
          "stateMutability": "nonpayable",
          "type": "constructor"
        },
        {
          "anonymous": false,
          "inputs": [
            {
              "indexed": false,
              "internalType": "string",
              "name": "orderId",
              "type": "string"
            },
            {
              "indexed": false,
              "internalType": "bytes32",
              "name": "orderHash",
              "type": "bytes32"
            },
            {
              "indexed": false,
              "internalType": "address",
              "name": "sender",
              "type": "address"
            }
          ],
          "name": "OrderUpload",
          "type": "event"
        },
        {
          "anonymous": false,
          "inputs": [
            {
              "indexed": true,
              "internalType": "address",
              "name": "previousOwner",
              "type": "address"
            },
            {
              "indexed": true,
              "internalType": "address",
              "name": "newOwner",
              "type": "address"
            }
          ],
          "name": "OwnershipTransferred",
          "type": "event"
        },
        {
          "anonymous": false,
          "inputs": [
            {
              "indexed": false,
              "internalType": "string",
              "name": "id",
              "type": "string"
            },
            {
              "indexed": false,
              "internalType": "bytes32",
              "name": "data",
              "type": "bytes32"
            },
            {
              "indexed": false,
              "internalType": "address",
              "name": "signers",
              "type": "address"
            }
          ],
          "name": "Sign",
          "type": "event"
        },
        {
          "anonymous": false,
          "inputs": [
            {
              "indexed": false,
              "internalType": "string",
              "name": "orderId",
              "type": "string"
            },
            {
              "indexed": false,
              "internalType": "enum OrderStore.OrderStatus",
              "name": "status",
              "type": "uint8"
            },
            {
              "indexed": false,
              "internalType": "address",
              "name": "sender",
              "type": "address"
            }
          ],
          "name": "UpdateStatus",
          "type": "event"
        },
        {
          "anonymous": false,
          "inputs": [
            {
              "indexed": false,
              "internalType": "string",
              "name": "id",
              "type": "string"
            },
            {
              "indexed": false,
              "internalType": "bytes32",
              "name": "data",
              "type": "bytes32"
            }
          ],
          "name": "Verify",
          "type": "event"
        },
        {
          "inputs": [],
          "name": "NCC_ROLE",
          "outputs": [
            {
              "internalType": "bytes32",
              "name": "",
              "type": "bytes32"
            }
          ],
          "stateMutability": "view",
          "type": "function"
        },
        {
          "inputs": [],
          "name": "NVDP_ROLE",
          "outputs": [
            {
              "internalType": "bytes32",
              "name": "",
              "type": "bytes32"
            }
          ],
          "stateMutability": "view",
          "type": "function"
        },
        {
          "inputs": [],
          "name": "NVGH_ROLE",
          "outputs": [
            {
              "internalType": "bytes32",
              "name": "",
              "type": "bytes32"
            }
          ],
          "stateMutability": "view",
          "type": "function"
        },
        {
          "inputs": [],
          "name": "NVKD_ROLE",
          "outputs": [
            {
              "internalType": "bytes32",
              "name": "",
              "type": "bytes32"
            }
          ],
          "stateMutability": "view",
          "type": "function"
        },
        {
          "inputs": [],
          "name": "QL_ROLE",
          "outputs": [
            {
              "internalType": "bytes32",
              "name": "",
              "type": "bytes32"
            }
          ],
          "stateMutability": "view",
          "type": "function"
        },
        {
          "inputs": [],
          "name": "SHOP_ROLE",
          "outputs": [
            {
              "internalType": "bytes32",
              "name": "",
              "type": "bytes32"
            }
          ],
          "stateMutability": "view",
          "type": "function"
        },
        {
          "inputs": [
            {
              "internalType": "string",
              "name": "id",
              "type": "string"
            },
            {
              "internalType": "bytes32",
              "name": "data",
              "type": "bytes32"
            }
          ],
          "name": "addTransaction",
          "outputs": [],
          "stateMutability": "nonpayable",
          "type": "function"
        },
        {
          "inputs": [
            {
              "internalType": "string",
              "name": "id",
              "type": "string"
            },
            {
              "internalType": "bytes32",
              "name": "data",
              "type": "bytes32"
            }
          ],
          "name": "confirmTransaction",
          "outputs": [],
          "stateMutability": "nonpayable",
          "type": "function"
        },
        {
          "inputs": [
            {
              "internalType": "string",
              "name": "",
              "type": "string"
            },
            {
              "internalType": "bytes32",
              "name": "",
              "type": "bytes32"
            }
          ],
          "name": "consensusTx",
          "outputs": [
            {
              "internalType": "bool",
              "name": "verified",
              "type": "bool"
            },
            {
              "internalType": "uint256",
              "name": "timestamp",
              "type": "uint256"
            }
          ],
          "stateMutability": "view",
          "type": "function"
        },
        {
          "inputs": [
            {
              "internalType": "string",
              "name": "orderId",
              "type": "string"
            }
          ],
          "name": "getOrder",
          "outputs": [
            {
              "internalType": "bytes32",
              "name": "",
              "type": "bytes32"
            },
            {
              "components": [
                {
                  "internalType": "enum OrderStore.OrderStatus",
                  "name": "status",
                  "type": "uint8"
                },
                {
                  "internalType": "uint256",
                  "name": "atBlock",
                  "type": "uint256"
                }
              ],
              "internalType": "struct OrderStore.StatusHistory[]",
              "name": "",
              "type": "tuple[]"
            }
          ],
          "stateMutability": "view",
          "type": "function"
        },
        {
          "inputs": [
            {
              "internalType": "string",
              "name": "orderId",
              "type": "string"
            },
            {
              "internalType": "bytes32",
              "name": "orderHash",
              "type": "bytes32"
            }
          ],
          "name": "issue",
          "outputs": [],
          "stateMutability": "nonpayable",
          "type": "function"
        },
        {
          "inputs": [
            {
              "internalType": "string",
              "name": "",
              "type": "string"
            }
          ],
          "name": "orders",
          "outputs": [
            {
              "internalType": "bytes32",
              "name": "",
              "type": "bytes32"
            }
          ],
          "stateMutability": "view",
          "type": "function"
        },
        {
          "inputs": [],
          "name": "owner",
          "outputs": [
            {
              "internalType": "address",
              "name": "",
              "type": "address"
            }
          ],
          "stateMutability": "view",
          "type": "function"
        },
        {
          "inputs": [],
          "name": "renounceOwnership",
          "outputs": [],
          "stateMutability": "nonpayable",
          "type": "function"
        },
        {
          "inputs": [],
          "name": "requires",
          "outputs": [
            {
              "internalType": "uint256",
              "name": "",
              "type": "uint256"
            }
          ],
          "stateMutability": "view",
          "type": "function"
        },
        {
          "inputs": [
            {
              "internalType": "address",
              "name": "",
              "type": "address"
            }
          ],
          "name": "roles",
          "outputs": [
            {
              "internalType": "bytes32",
              "name": "",
              "type": "bytes32"
            }
          ],
          "stateMutability": "view",
          "type": "function"
        },
        {
          "inputs": [
            {
              "internalType": "bytes32",
              "name": "",
              "type": "bytes32"
            },
            {
              "internalType": "uint256",
              "name": "",
              "type": "uint256"
            }
          ],
          "name": "rules",
          "outputs": [
            {
              "internalType": "enum OrderStore.OrderStatus",
              "name": "",
              "type": "uint8"
            }
          ],
          "stateMutability": "view",
          "type": "function"
        },
        {
          "inputs": [
            {
              "internalType": "address",
              "name": "user",
              "type": "address"
            },
            {
              "internalType": "bytes32",
              "name": "role",
              "type": "bytes32"
            }
          ],
          "name": "setRole",
          "outputs": [],
          "stateMutability": "nonpayable",
          "type": "function"
        },
        {
          "inputs": [
            {
              "internalType": "address",
              "name": "signer",
              "type": "address"
            }
          ],
          "name": "setSigner",
          "outputs": [],
          "stateMutability": "nonpayable",
          "type": "function"
        },
        {
          "inputs": [
            {
              "internalType": "bytes32",
              "name": "",
              "type": "bytes32"
            },
            {
              "internalType": "address",
              "name": "",
              "type": "address"
            }
          ],
          "name": "signatures",
          "outputs": [
            {
              "internalType": "bool",
              "name": "",
              "type": "bool"
            }
          ],
          "stateMutability": "view",
          "type": "function"
        },
        {
          "inputs": [
            {
              "internalType": "uint256",
              "name": "",
              "type": "uint256"
            }
          ],
          "name": "signers",
          "outputs": [
            {
              "internalType": "address",
              "name": "",
              "type": "address"
            }
          ],
          "stateMutability": "view",
          "type": "function"
        },
        {
          "inputs": [
            {
              "internalType": "string",
              "name": "",
              "type": "string"
            },
            {
              "internalType": "uint256",
              "name": "",
              "type": "uint256"
            }
          ],
          "name": "statusHistory",
          "outputs": [
            {
              "internalType": "enum OrderStore.OrderStatus",
              "name": "status",
              "type": "uint8"
            },
            {
              "internalType": "uint256",
              "name": "atBlock",
              "type": "uint256"
            }
          ],
          "stateMutability": "view",
          "type": "function"
        },
        {
          "inputs": [
            {
              "internalType": "string",
              "name": "id",
              "type": "string"
            },
            {
              "internalType": "bytes32",
              "name": "data",
              "type": "bytes32"
            }
          ],
          "name": "submitTransaction",
          "outputs": [
            {
              "internalType": "uint256",
              "name": "transactionId",
              "type": "uint256"
            }
          ],
          "stateMutability": "nonpayable",
          "type": "function"
        },
        {
          "inputs": [
            {
              "internalType": "address",
              "name": "newOwner",
              "type": "address"
            }
          ],
          "name": "transferOwnership",
          "outputs": [],
          "stateMutability": "nonpayable",
          "type": "function"
        },
        {
          "inputs": [
            {
              "internalType": "string",
              "name": "orderId",
              "type": "string"
            },
            {
              "internalType": "enum OrderStore.OrderStatus",
              "name": "status",
              "type": "uint8"
            }
          ],
          "name": "updateOrderStatus",
          "outputs": [],
          "stateMutability": "nonpayable",
          "type": "function"
        }
      ],
      "devdoc": {
        "kind": "dev",
        "methods": {
          "owner()": {
            "details": "Returns the address of the current owner."
          },
          "renounceOwnership()": {
            "details": "Leaves the contract without owner. It will not be possible to call `onlyOwner` functions anymore. Can only be called by the current owner. NOTE: Renouncing ownership will leave the contract without an owner, thereby removing any functionality that is only available to the owner."
          },
          "transferOwnership(address)": {
            "details": "Transfers ownership of the contract to a new account (`newOwner`). Can only be called by the current owner."
          }
        },
        "version": 1
      },
      "evm": {
        "bytecode": {
          "linkReferences": {},
          "object": "608060405234801561001057600080fd5b5061002161001c61009f565b6100a3565b3360008181526004602052604081207f722f6341587eccff4e236840b2c6571211fb687822bad2b7c7b37b130d4c617990556008805460018101825591527ff3f7a9fe364faab93b216da50a3214154f22a0a2b415b23a84c8169e8b636ee30180546001600160a01b031916909117905561009a6100f3565b61037c565b3390565b600080546001600160a01b038381166001600160a01b0319831681178455604051919092169283917f8be0079c531659141344cd1fd0a4f28419497f9722a3daafe3b4186f6b6457e09190a35050565b600560209081527febfa74d0d8525dac185537e0a178d2781e5b93766bca94c82da3b10443a1c3a68054600180820183557f999edeba1e6b0ba4cedbd423663cb7b4274061a032dc47e0f1cbe9b5c8f1514084830481018054601f94851661010090810a60ff908102199092169092558554808501875587810484018054918716840a60098102908402199092169190911790558554808501875587810484018054918716840a60088102908402199092169190911790558554808501875587810484018054918716840a600b81029084021990921691909117905585548085019096558686049092018054958516820a600a810290840219909616959095179094557f072b5618ca3fa2b7a26724d02b3b37fdbdd100f60cfaacd786ca0756445017e780548084019091557fca736f7ef4b0d56a0f16716dea1f3886a44d3baeb9fa621dc64fc41a866c249d868204018054918516860a8084021990921690911790557f2fe62e94ce8a924925dd98fe6970dd77db1d5936fe21c62074a276e434cb805d8054808401825560008290527f51f6466cc4ec25cfa2a835ede5d507298d34e28a301f9e76a3b84185797dd62d87820481018054928716880a6002810290860219909316929092179091558154808501835587810482018054918716880a60038102908602199092169190911790558154808501835587810482018054918716880a60048102908602199092169190911790558154808501835587810482018054918716880a60068102908602199092169190911790558154808501835587810482018054918716880a6007810290860219909216919091179055815493840190915594820490940180549190921690920a600d8102930219909116919091179055565b6115cb8061038b6000396000f3fe608060405234801561001057600080fd5b50600436106101735760003560e01c80636c19e783116100de5780638da5cb5b11610097578063d5af096d11610071578063d5af096d14610316578063d5b988201461031e578063dc18fa9514610326578063f2fde38b1461034657610173565b80638da5cb5b146102da57806399374642146102e2578063bb9a932c146102f557610173565b80636c19e783146102865780637068fab914610299578063712ca0f8146102a1578063715018a6146102c257806371d05b7e146102ca57806389b2465d146102d257610173565b80633a5f4e86116101305780633a5f4e86146102125780633fc770a514610225578063466cf7a81461022d5780634749a63f14610240578063673132e214610260578063674f29481461027357610173565b806301d0216c1461017857806306577f2614610196578063123e7582146101ab5780631a948947146101be5780632079fb9a146101d1578063364476ed146101f1575b600080fd5b610180610359565b60405161018d91906112b7565b60405180910390f35b6101a96101a4366004611013565b61037d565b005b6101a96101b9366004611088565b610399565b6101806101cc3660046110fb565b61042f565b6101e46101df3660046111cc565b61044c565b60405161018d9190611288565b6102046101ff366004611136565b610476565b60405161018d929190611332565b6101a9610220366004611136565b6104c5565b610180610631565b61018061023b366004611088565b610655565b61025361024e366004611067565b610794565b60405161018d919061131e565b6101a961026e366004611088565b6107d7565b6101a9610281366004611179565b6108f2565b6101a9610294366004610ff9565b610bb6565b610180610c47565b6102b46102af3660046110fb565b610c4c565b60405161018d9291906112c0565b6101a9610d41565b610180610d8c565b610180610db0565b6101e4610dd4565b6101806102f0366004610ff9565b610de3565b610308610303366004611136565b610df5565b60405161018d9291906112a7565b610180610e2f565b610180610e53565b61033961033436600461103c565b610e77565b60405161018d919061129c565b6101a9610354366004610ff9565b610e97565b7f1f0426c2589e5c3ea5f5996e2a4371ca21edd86514b6679c9dd135d7c85b28bf81565b6001600160a01b03909116600090815260046020526040902055565b600783836040516103ab92919061125c565b908152604080516020928190038301902060008481529252902060010154156103d35761042a565b6040805180820182526000815242602082015290516007906103f8908690869061125c565b90815260408051602092819003830190206000858152908352208251815460ff19169015151781559101516001909101555b505050565b805160208183018101805160028252928201919093012091525481565b6008818154811061045c57600080fd5b6000918252602090912001546001600160a01b0316905081565b815160208184018101805160038252928201918501919091209190528054829081106104a157600080fd5b60009182526020909120600290910201805460019091015460ff9091169250905082565b6104cd610f08565b6001600160a01b03166104de610dd4565b6001600160a01b03161461050d5760405162461bcd60e51b8152600401610504906114a6565b60405180910390fd5b60038260405161051d919061126c565b908152604051908190036020019020541561054a5760405162461bcd60e51b81526004016105049061145a565b60038260405161055a919061126c565b90815260408051918290036020908101832083830190925260008084524382850152825460018082018555938252919020835160029092020180549092839160ff19169083600d8111156105be57634e487b7160e01b600052602160045260246000fd5b0217905550602082015181600101555050806002836040516105e0919061126c565b9081526020016040518091039020819055507f069662d34c4fca879fc5556a8d35367de009ac745d8dae427eed8b8164e3095c828233604051610625939291906113a6565b60405180910390a15050565b7f80d27d05994edf4994028aeca85fdaca3f2d00ef05d9d609a8b295c631139a6581565b336000908152600460205260408120547f80d27d05994edf4994028aeca85fdaca3f2d00ef05d9d609a8b295c631139a6514806106c05750336000908152600460205260409020547f1f0426c2589e5c3ea5f5996e2a4371ca21edd86514b6679c9dd135d7c85b28bf145b806106f95750336000908152600460205260409020547f790b481f3d8436972ed2b30ac1cacd05cadaf09877d2b8f61833ec142e78e18e145b6107155760405162461bcd60e51b8152600401610504906114db565b610720848484610399565b600082815260066020908152604080832033808552925291829020805460ff1916600117905590517fd99a2beebf12926511bfbf00fb3a0c516ac8441690e20c8cdd25a86ccd70f9bb9161077a9187918791879190611371565b60405180910390a161078d8484846107d7565b9392505050565b600560205281600052604060002081815481106107b057600080fd5b9060005260206000209060209182820401919006915091509054906101000a900460ff1681565b6000805b60085481101561086a576000838152600660205260408120600880549192918490811061081857634e487b7160e01b600052603260045260246000fd5b60009182526020808320909101546001600160a01b0316835282019290925260400190205460ff16151560011415610858578161085481611558565b9250505b8061086281611558565b9150506107db565b5060028114156108ec5760016007858560405161088892919061125c565b9081526040805160209281900383018120600087815293529120805460ff1916921515929092179091557fd81072d34d719da4a5ae18d5db92d390b8d0a245527b3039112fa980cee0834e906108e39086908690869061134d565b60405180910390a15b50505050565b6108fa610f08565b6001600160a01b031661090b610dd4565b6001600160a01b0316146109315760405162461bcd60e51b8152600401610504906114a6565b600382604051610941919061126c565b9081526040519081900360200190205461096d5760405162461bcd60e51b815260040161050490611503565b33600090815260046020908152604080832054808452600583528184208054835181860281018601909452808452919493909190830182828015610a0e57602002820191906000526020600020906000905b82829054906101000a900460ff16600d8111156109ec57634e487b7160e01b600052602160045260246000fd5b8152602060019283018181049485019490930390920291018084116109bf5790505b505050505090506000805b8251811015610aaa57828181518110610a4257634e487b7160e01b600052603260045260246000fd5b6020026020010151600d811115610a6957634e487b7160e01b600052602160045260246000fd5b85600d811115610a8957634e487b7160e01b600052602160045260246000fd5b1415610a985760019150610aaa565b80610aa281611558565b915050610a19565b5080610ac85760405162461bcd60e51b81526004016105049061147f565b600385604051610ad8919061126c565b9081526020016040518091039020604051806040016040528086600d811115610b1157634e487b7160e01b600052602160045260246000fd5b81524360209182015282546001818101855560009485529190932082516002909402018054929390929091839160ff19169083600d811115610b6357634e487b7160e01b600052602160045260246000fd5b02179055506020820151816001015550507f924873db50e5960d6e237a67bd481cd35f649d4ecbb172d5499bd0b8a851989b858533604051610ba7939291906113d9565b60405180910390a15050505050565b610bbe610f08565b6001600160a01b0316610bcf610dd4565b6001600160a01b031614610bf55760405162461bcd60e51b8152600401610504906114a6565b600880546001810182556000919091527ff3f7a9fe364faab93b216da50a3214154f22a0a2b415b23a84c8169e8b636ee30180546001600160a01b0319166001600160a01b0392909216919091179055565b600281565b60006060600283604051610c60919061126c565b908152602001604051809103902054600384604051610c7f919061126c565b908152602001604051809103902080805480602002602001604051908101604052809291908181526020016000905b82821015610d325760008481526020902060408051808201909152600284029091018054829060ff16600d811115610cf657634e487b7160e01b600052602160045260246000fd5b600d811115610d1557634e487b7160e01b600052602160045260246000fd5b815260200160018201548152505081526020019060010190610cae565b50505050905091509150915091565b610d49610f08565b6001600160a01b0316610d5a610dd4565b6001600160a01b031614610d805760405162461bcd60e51b8152600401610504906114a6565b610d8a6000610f0c565b565b7f722f6341587eccff4e236840b2c6571211fb687822bad2b7c7b37b130d4c617981565b7f56109128f45dd89f29ec6e16ddca878d12e9aef78a8dbd2caa537128fce6500c81565b6000546001600160a01b031690565b60046020526000908152604090205481565b8151602081840181018051600782529282019482019490942091909352909152600090815260409020805460019091015460ff9091169082565b7f790b481f3d8436972ed2b30ac1cacd05cadaf09877d2b8f61833ec142e78e18e81565b7f061cd7d15cdffa40c46709434394974d23a1fa1de25e8bd3810b54d419f7102e81565b600660209081526000928352604080842090915290825290205460ff1681565b610e9f610f08565b6001600160a01b0316610eb0610dd4565b6001600160a01b031614610ed65760405162461bcd60e51b8152600401610504906114a6565b6001600160a01b038116610efc5760405162461bcd60e51b815260040161050490611414565b610f0581610f0c565b50565b3390565b600080546001600160a01b038381166001600160a01b0319831681178455604051919092169283917f8be0079c531659141344cd1fd0a4f28419497f9722a3daafe3b4186f6b6457e09190a35050565b80356001600160a01b0381168114610f7357600080fd5b919050565b600082601f830112610f88578081fd5b813567ffffffffffffffff80821115610fa357610fa361157f565b604051601f8301601f191681016020018281118282101715610fc757610fc761157f565b604052828152848301602001861015610fde578384fd5b82602086016020830137918201602001929092529392505050565b60006020828403121561100a578081fd5b61078d82610f5c565b60008060408385031215611025578081fd5b61102e83610f5c565b946020939093013593505050565b6000806040838503121561104e578182fd5b8235915061105e60208401610f5c565b90509250929050565b60008060408385031215611079578182fd5b50508035926020909101359150565b60008060006040848603121561109c578081fd5b833567ffffffffffffffff808211156110b3578283fd5b818601915086601f8301126110c6578283fd5b8135818111156110d4578384fd5b8760208285010111156110e5578384fd5b6020928301989097509590910135949350505050565b60006020828403121561110c578081fd5b813567ffffffffffffffff811115611122578182fd5b61112e84828501610f78565b949350505050565b60008060408385031215611148578182fd5b823567ffffffffffffffff81111561115e578283fd5b61116a85828601610f78565b95602094909401359450505050565b6000806040838503121561118b578182fd5b823567ffffffffffffffff8111156111a1578283fd5b6111ad85828601610f78565b9250506020830135600e81106111c1578182fd5b809150509250929050565b6000602082840312156111dd578081fd5b5035919050565b600e811061120257634e487b7160e01b600052602160045260246000fd5b9052565b60008284528282602086013780602084860101526020601f19601f85011685010190509392505050565b6000815180845261124881602086016020860161152c565b601f01601f19169290920160200192915050565b6000828483379101908152919050565b6000825161127e81846020870161152c565b9190910192915050565b6001600160a01b0391909116815260200190565b901515815260200190565b9115158252602082015260400190565b90815260200190565b60006040808301858452602082818601528186518084526060870191508288019350855b818110156113105784516112f98482516111e4565b8401518385015293830193918501916001016112e4565b509098975050505050505050565b6020810161132c82846111e4565b92915050565b6040810161134082856111e4565b8260208301529392505050565b600060408252611361604083018587611206565b9050826020830152949350505050565b600060608252611385606083018688611206565b6020830194909452506001600160a01b039190911660409091015292915050565b6000606082526113b96060830186611230565b6020830194909452506001600160a01b0391909116604090910152919050565b6000606082526113ec6060830186611230565b90506113fb60208301856111e4565b6001600160a01b03929092166040919091015292915050565b60208082526026908201527f4f776e61626c653a206e6577206f776e657220697320746865207a65726f206160408201526564647265737360d01b606082015260800190565b6020808252600b908201526a13dc99195c88195e1a5cdd60aa1b604082015260600190565b6020808252600d908201526c2737903832b936b4b9b9b4b7b760991b604082015260600190565b6020808252818101527f4f776e61626c653a2063616c6c6572206973206e6f7420746865206f776e6572604082015260600190565b6020808252600e908201526d2737ba103832b936b4b9b9b4b7b760911b604082015260600190565b6020808252600f908201526e13dc99195c881b9bdd08195e1a5cdd608a1b604082015260600190565b60005b8381101561154757818101518382015260200161152f565b838111156108ec5750506000910152565b600060001982141561157857634e487b7160e01b81526011600452602481fd5b5060010190565b634e487b7160e01b600052604160045260246000fdfea26469706673582212202e9934ff16e17a66cab4c9d2a89673a5eebe76839ab3c3c9e9ff147378b2f50064736f6c63430008000033",
          "opcodes": "PUSH1 0x80 PUSH1 0x40 MSTORE CALLVALUE DUP1 ISZERO PUSH2 0x10 JUMPI PUSH1 0x0 DUP1 REVERT JUMPDEST POP PUSH2 0x21 PUSH2 0x1C PUSH2 0x9F JUMP JUMPDEST PUSH2 0xA3 JUMP JUMPDEST CALLER PUSH1 0x0 DUP2 DUP2 MSTORE PUSH1 0x4 PUSH1 0x20 MSTORE PUSH1 0x40 DUP2 KECCAK256 PUSH32 0x722F6341587ECCFF4E236840B2C6571211FB687822BAD2B7C7B37B130D4C6179 SWAP1 SSTORE PUSH1 0x8 DUP1 SLOAD PUSH1 0x1 DUP2 ADD DUP3 SSTORE SWAP2 MSTORE PUSH32 0xF3F7A9FE364FAAB93B216DA50A3214154F22A0A2B415B23A84C8169E8B636EE3 ADD DUP1 SLOAD PUSH1 0x1 PUSH1 0x1 PUSH1 0xA0 SHL SUB NOT AND SWAP1 SWAP2 OR SWAP1 SSTORE PUSH2 0x9A PUSH2 0xF3 JUMP JUMPDEST PUSH2 0x37C JUMP JUMPDEST CALLER SWAP1 JUMP JUMPDEST PUSH1 0x0 DUP1 SLOAD PUSH1 0x1 PUSH1 0x1 PUSH1 0xA0 SHL SUB DUP4 DUP2 AND PUSH1 0x1 PUSH1 0x1 PUSH1 0xA0 SHL SUB NOT DUP4 AND DUP2 OR DUP5 SSTORE PUSH1 0x40 MLOAD SWAP2 SWAP1 SWAP3 AND SWAP3 DUP4 SWAP2 PUSH32 0x8BE0079C531659141344CD1FD0A4F28419497F9722A3DAAFE3B4186F6B6457E0 SWAP2 SWAP1 LOG3 POP POP JUMP JUMPDEST PUSH1 0x5 PUSH1 0x20 SWAP1 DUP2 MSTORE PUSH32 0xEBFA74D0D8525DAC185537E0A178D2781E5B93766BCA94C82DA3B10443A1C3A6 DUP1 SLOAD PUSH1 0x1 DUP1 DUP3 ADD DUP4 SSTORE PUSH32 0x999EDEBA1E6B0BA4CEDBD423663CB7B4274061A032DC47E0F1CBE9B5C8F15140 DUP5 DUP4 DIV DUP2 ADD DUP1 SLOAD PUSH1 0x1F SWAP5 DUP6 AND PUSH2 0x100 SWAP1 DUP2 EXP PUSH1 0xFF SWAP1 DUP2 MUL NOT SWAP1 SWAP3 AND SWAP1 SWAP3 SSTORE DUP6 SLOAD DUP1 DUP6 ADD DUP8 SSTORE DUP8 DUP2 DIV DUP5 ADD DUP1 SLOAD SWAP2 DUP8 AND DUP5 EXP PUSH1 0x9 DUP2 MUL SWAP1 DUP5 MUL NOT SWAP1 SWAP3 AND SWAP2 SWAP1 SWAP2 OR SWAP1 SSTORE DUP6 SLOAD DUP1 DUP6 ADD DUP8 SSTORE DUP8 DUP2 DIV DUP5 ADD DUP1 SLOAD SWAP2 DUP8 AND DUP5 EXP PUSH1 0x8 DUP2 MUL SWAP1 DUP5 MUL NOT SWAP1 SWAP3 AND SWAP2 SWAP1 SWAP2 OR SWAP1 SSTORE DUP6 SLOAD DUP1 DUP6 ADD DUP8 SSTORE DUP8 DUP2 DIV DUP5 ADD DUP1 SLOAD SWAP2 DUP8 AND DUP5 EXP PUSH1 0xB DUP2 MUL SWAP1 DUP5 MUL NOT SWAP1 SWAP3 AND SWAP2 SWAP1 SWAP2 OR SWAP1 SSTORE DUP6 SLOAD DUP1 DUP6 ADD SWAP1 SWAP7 SSTORE DUP7 DUP7 DIV SWAP1 SWAP3 ADD DUP1 SLOAD SWAP6 DUP6 AND DUP3 EXP PUSH1 0xA DUP2 MUL SWAP1 DUP5 MUL NOT SWAP1 SWAP7 AND SWAP6 SWAP1 SWAP6 OR SWAP1 SWAP5 SSTORE PUSH32 0x72B5618CA3FA2B7A26724D02B3B37FDBDD100F60CFAACD786CA0756445017E7 DUP1 SLOAD DUP1 DUP5 ADD SWAP1 SWAP2 SSTORE PUSH32 0xCA736F7EF4B0D56A0F16716DEA1F3886A44D3BAEB9FA621DC64FC41A866C249D DUP7 DUP3 DIV ADD DUP1 SLOAD SWAP2 DUP6 AND DUP7 EXP DUP1 DUP5 MUL NOT SWAP1 SWAP3 AND SWAP1 SWAP2 OR SWAP1 SSTORE PUSH32 0x2FE62E94CE8A924925DD98FE6970DD77DB1D5936FE21C62074A276E434CB805D DUP1 SLOAD DUP1 DUP5 ADD DUP3 SSTORE PUSH1 0x0 DUP3 SWAP1 MSTORE PUSH32 0x51F6466CC4EC25CFA2A835EDE5D507298D34E28A301F9E76A3B84185797DD62D DUP8 DUP3 DIV DUP2 ADD DUP1 SLOAD SWAP3 DUP8 AND DUP9 EXP PUSH1 0x2 DUP2 MUL SWAP1 DUP7 MUL NOT SWAP1 SWAP4 AND SWAP3 SWAP1 SWAP3 OR SWAP1 SWAP2 SSTORE DUP2 SLOAD DUP1 DUP6 ADD DUP4 SSTORE DUP8 DUP2 DIV DUP3 ADD DUP1 SLOAD SWAP2 DUP8 AND DUP9 EXP PUSH1 0x3 DUP2 MUL SWAP1 DUP7 MUL NOT SWAP1 SWAP3 AND SWAP2 SWAP1 SWAP2 OR SWAP1 SSTORE DUP2 SLOAD DUP1 DUP6 ADD DUP4 SSTORE DUP8 DUP2 DIV DUP3 ADD DUP1 SLOAD SWAP2 DUP8 AND DUP9 EXP PUSH1 0x4 DUP2 MUL SWAP1 DUP7 MUL NOT SWAP1 SWAP3 AND SWAP2 SWAP1 SWAP2 OR SWAP1 SSTORE DUP2 SLOAD DUP1 DUP6 ADD DUP4 SSTORE DUP8 DUP2 DIV DUP3 ADD DUP1 SLOAD SWAP2 DUP8 AND DUP9 EXP PUSH1 0x6 DUP2 MUL SWAP1 DUP7 MUL NOT SWAP1 SWAP3 AND SWAP2 SWAP1 SWAP2 OR SWAP1 SSTORE DUP2 SLOAD DUP1 DUP6 ADD DUP4 SSTORE DUP8 DUP2 DIV DUP3 ADD DUP1 SLOAD SWAP2 DUP8 AND DUP9 EXP PUSH1 0x7 DUP2 MUL SWAP1 DUP7 MUL NOT SWAP1 SWAP3 AND SWAP2 SWAP1 SWAP2 OR SWAP1 SSTORE DUP2 SLOAD SWAP4 DUP5 ADD SWAP1 SWAP2 SSTORE SWAP5 DUP3 DIV SWAP1 SWAP5 ADD DUP1 SLOAD SWAP2 SWAP1 SWAP3 AND SWAP1 SWAP3 EXP PUSH1 0xD DUP2 MUL SWAP4 MUL NOT SWAP1 SWAP2 AND SWAP2 SWAP1 SWAP2 OR SWAP1 SSTORE JUMP JUMPDEST PUSH2 0x15CB DUP1 PUSH2 0x38B PUSH1 0x0 CODECOPY PUSH1 0x0 RETURN INVALID PUSH1 0x80 PUSH1 0x40 MSTORE CALLVALUE DUP1 ISZERO PUSH2 0x10 JUMPI PUSH1 0x0 DUP1 REVERT JUMPDEST POP PUSH1 0x4 CALLDATASIZE LT PUSH2 0x173 JUMPI PUSH1 0x0 CALLDATALOAD PUSH1 0xE0 SHR DUP1 PUSH4 0x6C19E783 GT PUSH2 0xDE JUMPI DUP1 PUSH4 0x8DA5CB5B GT PUSH2 0x97 JUMPI DUP1 PUSH4 0xD5AF096D GT PUSH2 0x71 JUMPI DUP1 PUSH4 0xD5AF096D EQ PUSH2 0x316 JUMPI DUP1 PUSH4 0xD5B98820 EQ PUSH2 0x31E JUMPI DUP1 PUSH4 0xDC18FA95 EQ PUSH2 0x326 JUMPI DUP1 PUSH4 0xF2FDE38B EQ PUSH2 0x346 JUMPI PUSH2 0x173 JUMP JUMPDEST DUP1 PUSH4 0x8DA5CB5B EQ PUSH2 0x2DA JUMPI DUP1 PUSH4 0x99374642 EQ PUSH2 0x2E2 JUMPI DUP1 PUSH4 0xBB9A932C EQ PUSH2 0x2F5 JUMPI PUSH2 0x173 JUMP JUMPDEST DUP1 PUSH4 0x6C19E783 EQ PUSH2 0x286 JUMPI DUP1 PUSH4 0x7068FAB9 EQ PUSH2 0x299 JUMPI DUP1 PUSH4 0x712CA0F8 EQ PUSH2 0x2A1 JUMPI DUP1 PUSH4 0x715018A6 EQ PUSH2 0x2C2 JUMPI DUP1 PUSH4 0x71D05B7E EQ PUSH2 0x2CA JUMPI DUP1 PUSH4 0x89B2465D EQ PUSH2 0x2D2 JUMPI PUSH2 0x173 JUMP JUMPDEST DUP1 PUSH4 0x3A5F4E86 GT PUSH2 0x130 JUMPI DUP1 PUSH4 0x3A5F4E86 EQ PUSH2 0x212 JUMPI DUP1 PUSH4 0x3FC770A5 EQ PUSH2 0x225 JUMPI DUP1 PUSH4 0x466CF7A8 EQ PUSH2 0x22D JUMPI DUP1 PUSH4 0x4749A63F EQ PUSH2 0x240 JUMPI DUP1 PUSH4 0x673132E2 EQ PUSH2 0x260 JUMPI DUP1 PUSH4 0x674F2948 EQ PUSH2 0x273 JUMPI PUSH2 0x173 JUMP JUMPDEST DUP1 PUSH4 0x1D0216C EQ PUSH2 0x178 JUMPI DUP1 PUSH4 0x6577F26 EQ PUSH2 0x196 JUMPI DUP1 PUSH4 0x123E7582 EQ PUSH2 0x1AB JUMPI DUP1 PUSH4 0x1A948947 EQ PUSH2 0x1BE JUMPI DUP1 PUSH4 0x2079FB9A EQ PUSH2 0x1D1 JUMPI DUP1 PUSH4 0x364476ED EQ PUSH2 0x1F1 JUMPI JUMPDEST PUSH1 0x0 DUP1 REVERT JUMPDEST PUSH2 0x180 PUSH2 0x359 JUMP JUMPDEST PUSH1 0x40 MLOAD PUSH2 0x18D SWAP2 SWAP1 PUSH2 0x12B7 JUMP JUMPDEST PUSH1 0x40 MLOAD DUP1 SWAP2 SUB SWAP1 RETURN JUMPDEST PUSH2 0x1A9 PUSH2 0x1A4 CALLDATASIZE PUSH1 0x4 PUSH2 0x1013 JUMP JUMPDEST PUSH2 0x37D JUMP JUMPDEST STOP JUMPDEST PUSH2 0x1A9 PUSH2 0x1B9 CALLDATASIZE PUSH1 0x4 PUSH2 0x1088 JUMP JUMPDEST PUSH2 0x399 JUMP JUMPDEST PUSH2 0x180 PUSH2 0x1CC CALLDATASIZE PUSH1 0x4 PUSH2 0x10FB JUMP JUMPDEST PUSH2 0x42F JUMP JUMPDEST PUSH2 0x1E4 PUSH2 0x1DF CALLDATASIZE PUSH1 0x4 PUSH2 0x11CC JUMP JUMPDEST PUSH2 0x44C JUMP JUMPDEST PUSH1 0x40 MLOAD PUSH2 0x18D SWAP2 SWAP1 PUSH2 0x1288 JUMP JUMPDEST PUSH2 0x204 PUSH2 0x1FF CALLDATASIZE PUSH1 0x4 PUSH2 0x1136 JUMP JUMPDEST PUSH2 0x476 JUMP JUMPDEST PUSH1 0x40 MLOAD PUSH2 0x18D SWAP3 SWAP2 SWAP1 PUSH2 0x1332 JUMP JUMPDEST PUSH2 0x1A9 PUSH2 0x220 CALLDATASIZE PUSH1 0x4 PUSH2 0x1136 JUMP JUMPDEST PUSH2 0x4C5 JUMP JUMPDEST PUSH2 0x180 PUSH2 0x631 JUMP JUMPDEST PUSH2 0x180 PUSH2 0x23B CALLDATASIZE PUSH1 0x4 PUSH2 0x1088 JUMP JUMPDEST PUSH2 0x655 JUMP JUMPDEST PUSH2 0x253 PUSH2 0x24E CALLDATASIZE PUSH1 0x4 PUSH2 0x1067 JUMP JUMPDEST PUSH2 0x794 JUMP JUMPDEST PUSH1 0x40 MLOAD PUSH2 0x18D SWAP2 SWAP1 PUSH2 0x131E JUMP JUMPDEST PUSH2 0x1A9 PUSH2 0x26E CALLDATASIZE PUSH1 0x4 PUSH2 0x1088 JUMP JUMPDEST PUSH2 0x7D7 JUMP JUMPDEST PUSH2 0x1A9 PUSH2 0x281 CALLDATASIZE PUSH1 0x4 PUSH2 0x1179 JUMP JUMPDEST PUSH2 0x8F2 JUMP JUMPDEST PUSH2 0x1A9 PUSH2 0x294 CALLDATASIZE PUSH1 0x4 PUSH2 0xFF9 JUMP JUMPDEST PUSH2 0xBB6 JUMP JUMPDEST PUSH2 0x180 PUSH2 0xC47 JUMP JUMPDEST PUSH2 0x2B4 PUSH2 0x2AF CALLDATASIZE PUSH1 0x4 PUSH2 0x10FB JUMP JUMPDEST PUSH2 0xC4C JUMP JUMPDEST PUSH1 0x40 MLOAD PUSH2 0x18D SWAP3 SWAP2 SWAP1 PUSH2 0x12C0 JUMP JUMPDEST PUSH2 0x1A9 PUSH2 0xD41 JUMP JUMPDEST PUSH2 0x180 PUSH2 0xD8C JUMP JUMPDEST PUSH2 0x180 PUSH2 0xDB0 JUMP JUMPDEST PUSH2 0x1E4 PUSH2 0xDD4 JUMP JUMPDEST PUSH2 0x180 PUSH2 0x2F0 CALLDATASIZE PUSH1 0x4 PUSH2 0xFF9 JUMP JUMPDEST PUSH2 0xDE3 JUMP JUMPDEST PUSH2 0x308 PUSH2 0x303 CALLDATASIZE PUSH1 0x4 PUSH2 0x1136 JUMP JUMPDEST PUSH2 0xDF5 JUMP JUMPDEST PUSH1 0x40 MLOAD PUSH2 0x18D SWAP3 SWAP2 SWAP1 PUSH2 0x12A7 JUMP JUMPDEST PUSH2 0x180 PUSH2 0xE2F JUMP JUMPDEST PUSH2 0x180 PUSH2 0xE53 JUMP JUMPDEST PUSH2 0x339 PUSH2 0x334 CALLDATASIZE PUSH1 0x4 PUSH2 0x103C JUMP JUMPDEST PUSH2 0xE77 JUMP JUMPDEST PUSH1 0x40 MLOAD PUSH2 0x18D SWAP2 SWAP1 PUSH2 0x129C JUMP JUMPDEST PUSH2 0x1A9 PUSH2 0x354 CALLDATASIZE PUSH1 0x4 PUSH2 0xFF9 JUMP JUMPDEST PUSH2 0xE97 JUMP JUMPDEST PUSH32 0x1F0426C2589E5C3EA5F5996E2A4371CA21EDD86514B6679C9DD135D7C85B28BF DUP2 JUMP JUMPDEST PUSH1 0x1 PUSH1 0x1 PUSH1 0xA0 SHL SUB SWAP1 SWAP2 AND PUSH1 0x0 SWAP1 DUP2 MSTORE PUSH1 0x4 PUSH1 0x20 MSTORE PUSH1 0x40 SWAP1 KECCAK256 SSTORE JUMP JUMPDEST PUSH1 0x7 DUP4 DUP4 PUSH1 0x40 MLOAD PUSH2 0x3AB SWAP3 SWAP2 SWAP1 PUSH2 0x125C JUMP JUMPDEST SWAP1 DUP2 MSTORE PUSH1 0x40 DUP1 MLOAD PUSH1 0x20 SWAP3 DUP2 SWAP1 SUB DUP4 ADD SWAP1 KECCAK256 PUSH1 0x0 DUP5 DUP2 MSTORE SWAP3 MSTORE SWAP1 KECCAK256 PUSH1 0x1 ADD SLOAD ISZERO PUSH2 0x3D3 JUMPI PUSH2 0x42A JUMP JUMPDEST PUSH1 0x40 DUP1 MLOAD DUP1 DUP3 ADD DUP3 MSTORE PUSH1 0x0 DUP2 MSTORE TIMESTAMP PUSH1 0x20 DUP3 ADD MSTORE SWAP1 MLOAD PUSH1 0x7 SWAP1 PUSH2 0x3F8 SWAP1 DUP7 SWAP1 DUP7 SWAP1 PUSH2 0x125C JUMP JUMPDEST SWAP1 DUP2 MSTORE PUSH1 0x40 DUP1 MLOAD PUSH1 0x20 SWAP3 DUP2 SWAP1 SUB DUP4 ADD SWAP1 KECCAK256 PUSH1 0x0 DUP6 DUP2 MSTORE SWAP1 DUP4 MSTORE KECCAK256 DUP3 MLOAD DUP2 SLOAD PUSH1 0xFF NOT AND SWAP1 ISZERO ISZERO OR DUP2 SSTORE SWAP2 ADD MLOAD PUSH1 0x1 SWAP1 SWAP2 ADD SSTORE JUMPDEST POP POP POP JUMP JUMPDEST DUP1 MLOAD PUSH1 0x20 DUP2 DUP4 ADD DUP2 ADD DUP1 MLOAD PUSH1 0x2 DUP3 MSTORE SWAP3 DUP3 ADD SWAP2 SWAP1 SWAP4 ADD KECCAK256 SWAP2 MSTORE SLOAD DUP2 JUMP JUMPDEST PUSH1 0x8 DUP2 DUP2 SLOAD DUP2 LT PUSH2 0x45C JUMPI PUSH1 0x0 DUP1 REVERT JUMPDEST PUSH1 0x0 SWAP2 DUP3 MSTORE PUSH1 0x20 SWAP1 SWAP2 KECCAK256 ADD SLOAD PUSH1 0x1 PUSH1 0x1 PUSH1 0xA0 SHL SUB AND SWAP1 POP DUP2 JUMP JUMPDEST DUP2 MLOAD PUSH1 0x20 DUP2 DUP5 ADD DUP2 ADD DUP1 MLOAD PUSH1 0x3 DUP3 MSTORE SWAP3 DUP3 ADD SWAP2 DUP6 ADD SWAP2 SWAP1 SWAP2 KECCAK256 SWAP2 SWAP1 MSTORE DUP1 SLOAD DUP3 SWAP1 DUP2 LT PUSH2 0x4A1 JUMPI PUSH1 0x0 DUP1 REVERT JUMPDEST PUSH1 0x0 SWAP2 DUP3 MSTORE PUSH1 0x20 SWAP1 SWAP2 KECCAK256 PUSH1 0x2 SWAP1 SWAP2 MUL ADD DUP1 SLOAD PUSH1 0x1 SWAP1 SWAP2 ADD SLOAD PUSH1 0xFF SWAP1 SWAP2 AND SWAP3 POP SWAP1 POP DUP3 JUMP JUMPDEST PUSH2 0x4CD PUSH2 0xF08 JUMP JUMPDEST PUSH1 0x1 PUSH1 0x1 PUSH1 0xA0 SHL SUB AND PUSH2 0x4DE PUSH2 0xDD4 JUMP JUMPDEST PUSH1 0x1 PUSH1 0x1 PUSH1 0xA0 SHL SUB AND EQ PUSH2 0x50D JUMPI PUSH1 0x40 MLOAD PUSH3 0x461BCD PUSH1 0xE5 SHL DUP2 MSTORE PUSH1 0x4 ADD PUSH2 0x504 SWAP1 PUSH2 0x14A6 JUMP JUMPDEST PUSH1 0x40 MLOAD DUP1 SWAP2 SUB SWAP1 REVERT JUMPDEST PUSH1 0x3 DUP3 PUSH1 0x40 MLOAD PUSH2 0x51D SWAP2 SWAP1 PUSH2 0x126C JUMP JUMPDEST SWAP1 DUP2 MSTORE PUSH1 0x40 MLOAD SWAP1 DUP2 SWAP1 SUB PUSH1 0x20 ADD SWAP1 KECCAK256 SLOAD ISZERO PUSH2 0x54A JUMPI PUSH1 0x40 MLOAD PUSH3 0x461BCD PUSH1 0xE5 SHL DUP2 MSTORE PUSH1 0x4 ADD PUSH2 0x504 SWAP1 PUSH2 0x145A JUMP JUMPDEST PUSH1 0x3 DUP3 PUSH1 0x40 MLOAD PUSH2 0x55A SWAP2 SWAP1 PUSH2 0x126C JUMP JUMPDEST SWAP1 DUP2 MSTORE PUSH1 0x40 DUP1 MLOAD SWAP2 DUP3 SWAP1 SUB PUSH1 0x20 SWAP1 DUP2 ADD DUP4 KECCAK256 DUP4 DUP4 ADD SWAP1 SWAP3 MSTORE PUSH1 0x0 DUP1 DUP5 MSTORE NUMBER DUP3 DUP6 ADD MSTORE DUP3 SLOAD PUSH1 0x1 DUP1 DUP3 ADD DUP6 SSTORE SWAP4 DUP3 MSTORE SWAP2 SWAP1 KECCAK256 DUP4 MLOAD PUSH1 0x2 SWAP1 SWAP3 MUL ADD DUP1 SLOAD SWAP1 SWAP3 DUP4 SWAP2 PUSH1 0xFF NOT AND SWAP1 DUP4 PUSH1 0xD DUP2 GT ISZERO PUSH2 0x5BE JUMPI PUSH4 0x4E487B71 PUSH1 0xE0 SHL PUSH1 0x0 MSTORE PUSH1 0x21 PUSH1 0x4 MSTORE PUSH1 0x24 PUSH1 0x0 REVERT JUMPDEST MUL OR SWAP1 SSTORE POP PUSH1 0x20 DUP3 ADD MLOAD DUP2 PUSH1 0x1 ADD SSTORE POP POP DUP1 PUSH1 0x2 DUP4 PUSH1 0x40 MLOAD PUSH2 0x5E0 SWAP2 SWAP1 PUSH2 0x126C JUMP JUMPDEST SWAP1 DUP2 MSTORE PUSH1 0x20 ADD PUSH1 0x40 MLOAD DUP1 SWAP2 SUB SWAP1 KECCAK256 DUP2 SWAP1 SSTORE POP PUSH32 0x69662D34C4FCA879FC5556A8D35367DE009AC745D8DAE427EED8B8164E3095C DUP3 DUP3 CALLER PUSH1 0x40 MLOAD PUSH2 0x625 SWAP4 SWAP3 SWAP2 SWAP1 PUSH2 0x13A6 JUMP JUMPDEST PUSH1 0x40 MLOAD DUP1 SWAP2 SUB SWAP1 LOG1 POP POP JUMP JUMPDEST PUSH32 0x80D27D05994EDF4994028AECA85FDACA3F2D00EF05D9D609A8B295C631139A65 DUP2 JUMP JUMPDEST CALLER PUSH1 0x0 SWAP1 DUP2 MSTORE PUSH1 0x4 PUSH1 0x20 MSTORE PUSH1 0x40 DUP2 KECCAK256 SLOAD PUSH32 0x80D27D05994EDF4994028AECA85FDACA3F2D00EF05D9D609A8B295C631139A65 EQ DUP1 PUSH2 0x6C0 JUMPI POP CALLER PUSH1 0x0 SWAP1 DUP2 MSTORE PUSH1 0x4 PUSH1 0x20 MSTORE PUSH1 0x40 SWAP1 KECCAK256 SLOAD PUSH32 0x1F0426C2589E5C3EA5F5996E2A4371CA21EDD86514B6679C9DD135D7C85B28BF EQ JUMPDEST DUP1 PUSH2 0x6F9 JUMPI POP CALLER PUSH1 0x0 SWAP1 DUP2 MSTORE PUSH1 0x4 PUSH1 0x20 MSTORE PUSH1 0x40 SWAP1 KECCAK256 SLOAD PUSH32 0x790B481F3D8436972ED2B30AC1CACD05CADAF09877D2B8F61833EC142E78E18E EQ JUMPDEST PUSH2 0x715 JUMPI PUSH1 0x40 MLOAD PUSH3 0x461BCD PUSH1 0xE5 SHL DUP2 MSTORE PUSH1 0x4 ADD PUSH2 0x504 SWAP1 PUSH2 0x14DB JUMP JUMPDEST PUSH2 0x720 DUP5 DUP5 DUP5 PUSH2 0x399 JUMP JUMPDEST PUSH1 0x0 DUP3 DUP2 MSTORE PUSH1 0x6 PUSH1 0x20 SWAP1 DUP2 MSTORE PUSH1 0x40 DUP1 DUP4 KECCAK256 CALLER DUP1 DUP6 MSTORE SWAP3 MSTORE SWAP2 DUP3 SWAP1 KECCAK256 DUP1 SLOAD PUSH1 0xFF NOT AND PUSH1 0x1 OR SWAP1 SSTORE SWAP1 MLOAD PUSH32 0xD99A2BEEBF12926511BFBF00FB3A0C516AC8441690E20C8CDD25A86CCD70F9BB SWAP2 PUSH2 0x77A SWAP2 DUP8 SWAP2 DUP8 SWAP2 DUP8 SWAP2 SWAP1 PUSH2 0x1371 JUMP JUMPDEST PUSH1 0x40 MLOAD DUP1 SWAP2 SUB SWAP1 LOG1 PUSH2 0x78D DUP5 DUP5 DUP5 PUSH2 0x7D7 JUMP JUMPDEST SWAP4 SWAP3 POP POP POP JUMP JUMPDEST PUSH1 0x5 PUSH1 0x20 MSTORE DUP2 PUSH1 0x0 MSTORE PUSH1 0x40 PUSH1 0x0 KECCAK256 DUP2 DUP2 SLOAD DUP2 LT PUSH2 0x7B0 JUMPI PUSH1 0x0 DUP1 REVERT JUMPDEST SWAP1 PUSH1 0x0 MSTORE PUSH1 0x20 PUSH1 0x0 KECCAK256 SWAP1 PUSH1 0x20 SWAP2 DUP3 DUP3 DIV ADD SWAP2 SWAP1 MOD SWAP2 POP SWAP2 POP SWAP1 SLOAD SWAP1 PUSH2 0x100 EXP SWAP1 DIV PUSH1 0xFF AND DUP2 JUMP JUMPDEST PUSH1 0x0 DUP1 JUMPDEST PUSH1 0x8 SLOAD DUP2 LT ISZERO PUSH2 0x86A JUMPI PUSH1 0x0 DUP4 DUP2 MSTORE PUSH1 0x6 PUSH1 0x20 MSTORE PUSH1 0x40 DUP2 KECCAK256 PUSH1 0x8 DUP1 SLOAD SWAP2 SWAP3 SWAP2 DUP5 SWAP1 DUP2 LT PUSH2 0x818 JUMPI PUSH4 0x4E487B71 PUSH1 0xE0 SHL PUSH1 0x0 MSTORE PUSH1 0x32 PUSH1 0x4 MSTORE PUSH1 0x24 PUSH1 0x0 REVERT JUMPDEST PUSH1 0x0 SWAP2 DUP3 MSTORE PUSH1 0x20 DUP1 DUP4 KECCAK256 SWAP1 SWAP2 ADD SLOAD PUSH1 0x1 PUSH1 0x1 PUSH1 0xA0 SHL SUB AND DUP4 MSTORE DUP3 ADD SWAP3 SWAP1 SWAP3 MSTORE PUSH1 0x40 ADD SWAP1 KECCAK256 SLOAD PUSH1 0xFF AND ISZERO ISZERO PUSH1 0x1 EQ ISZERO PUSH2 0x858 JUMPI DUP2 PUSH2 0x854 DUP2 PUSH2 0x1558 JUMP JUMPDEST SWAP3 POP POP JUMPDEST DUP1 PUSH2 0x862 DUP2 PUSH2 0x1558 JUMP JUMPDEST SWAP2 POP POP PUSH2 0x7DB JUMP JUMPDEST POP PUSH1 0x2 DUP2 EQ ISZERO PUSH2 0x8EC JUMPI PUSH1 0x1 PUSH1 0x7 DUP6 DUP6 PUSH1 0x40 MLOAD PUSH2 0x888 SWAP3 SWAP2 SWAP1 PUSH2 0x125C JUMP JUMPDEST SWAP1 DUP2 MSTORE PUSH1 0x40 DUP1 MLOAD PUSH1 0x20 SWAP3 DUP2 SWAP1 SUB DUP4 ADD DUP2 KECCAK256 PUSH1 0x0 DUP8 DUP2 MSTORE SWAP4 MSTORE SWAP2 KECCAK256 DUP1 SLOAD PUSH1 0xFF NOT AND SWAP3 ISZERO ISZERO SWAP3 SWAP1 SWAP3 OR SWAP1 SWAP2 SSTORE PUSH32 0xD81072D34D719DA4A5AE18D5DB92D390B8D0A245527B3039112FA980CEE0834E SWAP1 PUSH2 0x8E3 SWAP1 DUP7 SWAP1 DUP7 SWAP1 DUP7 SWAP1 PUSH2 0x134D JUMP JUMPDEST PUSH1 0x40 MLOAD DUP1 SWAP2 SUB SWAP1 LOG1 JUMPDEST POP POP POP POP JUMP JUMPDEST PUSH2 0x8FA PUSH2 0xF08 JUMP JUMPDEST PUSH1 0x1 PUSH1 0x1 PUSH1 0xA0 SHL SUB AND PUSH2 0x90B PUSH2 0xDD4 JUMP JUMPDEST PUSH1 0x1 PUSH1 0x1 PUSH1 0xA0 SHL SUB AND EQ PUSH2 0x931 JUMPI PUSH1 0x40 MLOAD PUSH3 0x461BCD PUSH1 0xE5 SHL DUP2 MSTORE PUSH1 0x4 ADD PUSH2 0x504 SWAP1 PUSH2 0x14A6 JUMP JUMPDEST PUSH1 0x3 DUP3 PUSH1 0x40 MLOAD PUSH2 0x941 SWAP2 SWAP1 PUSH2 0x126C JUMP JUMPDEST SWAP1 DUP2 MSTORE PUSH1 0x40 MLOAD SWAP1 DUP2 SWAP1 SUB PUSH1 0x20 ADD SWAP1 KECCAK256 SLOAD PUSH2 0x96D JUMPI PUSH1 0x40 MLOAD PUSH3 0x461BCD PUSH1 0xE5 SHL DUP2 MSTORE PUSH1 0x4 ADD PUSH2 0x504 SWAP1 PUSH2 0x1503 JUMP JUMPDEST CALLER PUSH1 0x0 SWAP1 DUP2 MSTORE PUSH1 0x4 PUSH1 0x20 SWAP1 DUP2 MSTORE PUSH1 0x40 DUP1 DUP4 KECCAK256 SLOAD DUP1 DUP5 MSTORE PUSH1 0x5 DUP4 MSTORE DUP2 DUP5 KECCAK256 DUP1 SLOAD DUP4 MLOAD DUP2 DUP7 MUL DUP2 ADD DUP7 ADD SWAP1 SWAP5 MSTORE DUP1 DUP5 MSTORE SWAP2 SWAP5 SWAP4 SWAP1 SWAP2 SWAP1 DUP4 ADD DUP3 DUP3 DUP1 ISZERO PUSH2 0xA0E JUMPI PUSH1 0x20 MUL DUP3 ADD SWAP2 SWAP1 PUSH1 0x0 MSTORE PUSH1 0x20 PUSH1 0x0 KECCAK256 SWAP1 PUSH1 0x0 SWAP1 JUMPDEST DUP3 DUP3 SWAP1 SLOAD SWAP1 PUSH2 0x100 EXP SWAP1 DIV PUSH1 0xFF AND PUSH1 0xD DUP2 GT ISZERO PUSH2 0x9EC JUMPI PUSH4 0x4E487B71 PUSH1 0xE0 SHL PUSH1 0x0 MSTORE PUSH1 0x21 PUSH1 0x4 MSTORE PUSH1 0x24 PUSH1 0x0 REVERT JUMPDEST DUP2 MSTORE PUSH1 0x20 PUSH1 0x1 SWAP3 DUP4 ADD DUP2 DUP2 DIV SWAP5 DUP6 ADD SWAP5 SWAP1 SWAP4 SUB SWAP1 SWAP3 MUL SWAP2 ADD DUP1 DUP5 GT PUSH2 0x9BF JUMPI SWAP1 POP JUMPDEST POP POP POP POP POP SWAP1 POP PUSH1 0x0 DUP1 JUMPDEST DUP3 MLOAD DUP2 LT ISZERO PUSH2 0xAAA JUMPI DUP3 DUP2 DUP2 MLOAD DUP2 LT PUSH2 0xA42 JUMPI PUSH4 0x4E487B71 PUSH1 0xE0 SHL PUSH1 0x0 MSTORE PUSH1 0x32 PUSH1 0x4 MSTORE PUSH1 0x24 PUSH1 0x0 REVERT JUMPDEST PUSH1 0x20 MUL PUSH1 0x20 ADD ADD MLOAD PUSH1 0xD DUP2 GT ISZERO PUSH2 0xA69 JUMPI PUSH4 0x4E487B71 PUSH1 0xE0 SHL PUSH1 0x0 MSTORE PUSH1 0x21 PUSH1 0x4 MSTORE PUSH1 0x24 PUSH1 0x0 REVERT JUMPDEST DUP6 PUSH1 0xD DUP2 GT ISZERO PUSH2 0xA89 JUMPI PUSH4 0x4E487B71 PUSH1 0xE0 SHL PUSH1 0x0 MSTORE PUSH1 0x21 PUSH1 0x4 MSTORE PUSH1 0x24 PUSH1 0x0 REVERT JUMPDEST EQ ISZERO PUSH2 0xA98 JUMPI PUSH1 0x1 SWAP2 POP PUSH2 0xAAA JUMP JUMPDEST DUP1 PUSH2 0xAA2 DUP2 PUSH2 0x1558 JUMP JUMPDEST SWAP2 POP POP PUSH2 0xA19 JUMP JUMPDEST POP DUP1 PUSH2 0xAC8 JUMPI PUSH1 0x40 MLOAD PUSH3 0x461BCD PUSH1 0xE5 SHL DUP2 MSTORE PUSH1 0x4 ADD PUSH2 0x504 SWAP1 PUSH2 0x147F JUMP JUMPDEST PUSH1 0x3 DUP6 PUSH1 0x40 MLOAD PUSH2 0xAD8 SWAP2 SWAP1 PUSH2 0x126C JUMP JUMPDEST SWAP1 DUP2 MSTORE PUSH1 0x20 ADD PUSH1 0x40 MLOAD DUP1 SWAP2 SUB SWAP1 KECCAK256 PUSH1 0x40 MLOAD DUP1 PUSH1 0x40 ADD PUSH1 0x40 MSTORE DUP1 DUP7 PUSH1 0xD DUP2 GT ISZERO PUSH2 0xB11 JUMPI PUSH4 0x4E487B71 PUSH1 0xE0 SHL PUSH1 0x0 MSTORE PUSH1 0x21 PUSH1 0x4 MSTORE PUSH1 0x24 PUSH1 0x0 REVERT JUMPDEST DUP2 MSTORE NUMBER PUSH1 0x20 SWAP2 DUP3 ADD MSTORE DUP3 SLOAD PUSH1 0x1 DUP2 DUP2 ADD DUP6 SSTORE PUSH1 0x0 SWAP5 DUP6 MSTORE SWAP2 SWAP1 SWAP4 KECCAK256 DUP3 MLOAD PUSH1 0x2 SWAP1 SWAP5 MUL ADD DUP1 SLOAD SWAP3 SWAP4 SWAP1 SWAP3 SWAP1 SWAP2 DUP4 SWAP2 PUSH1 0xFF NOT AND SWAP1 DUP4 PUSH1 0xD DUP2 GT ISZERO PUSH2 0xB63 JUMPI PUSH4 0x4E487B71 PUSH1 0xE0 SHL PUSH1 0x0 MSTORE PUSH1 0x21 PUSH1 0x4 MSTORE PUSH1 0x24 PUSH1 0x0 REVERT JUMPDEST MUL OR SWAP1 SSTORE POP PUSH1 0x20 DUP3 ADD MLOAD DUP2 PUSH1 0x1 ADD SSTORE POP POP PUSH32 0x924873DB50E5960D6E237A67BD481CD35F649D4ECBB172D5499BD0B8A851989B DUP6 DUP6 CALLER PUSH1 0x40 MLOAD PUSH2 0xBA7 SWAP4 SWAP3 SWAP2 SWAP1 PUSH2 0x13D9 JUMP JUMPDEST PUSH1 0x40 MLOAD DUP1 SWAP2 SUB SWAP1 LOG1 POP POP POP POP POP JUMP JUMPDEST PUSH2 0xBBE PUSH2 0xF08 JUMP JUMPDEST PUSH1 0x1 PUSH1 0x1 PUSH1 0xA0 SHL SUB AND PUSH2 0xBCF PUSH2 0xDD4 JUMP JUMPDEST PUSH1 0x1 PUSH1 0x1 PUSH1 0xA0 SHL SUB AND EQ PUSH2 0xBF5 JUMPI PUSH1 0x40 MLOAD PUSH3 0x461BCD PUSH1 0xE5 SHL DUP2 MSTORE PUSH1 0x4 ADD PUSH2 0x504 SWAP1 PUSH2 0x14A6 JUMP JUMPDEST PUSH1 0x8 DUP1 SLOAD PUSH1 0x1 DUP2 ADD DUP3 SSTORE PUSH1 0x0 SWAP2 SWAP1 SWAP2 MSTORE PUSH32 0xF3F7A9FE364FAAB93B216DA50A3214154F22A0A2B415B23A84C8169E8B636EE3 ADD DUP1 SLOAD PUSH1 0x1 PUSH1 0x1 PUSH1 0xA0 SHL SUB NOT AND PUSH1 0x1 PUSH1 0x1 PUSH1 0xA0 SHL SUB SWAP3 SWAP1 SWAP3 AND SWAP2 SWAP1 SWAP2 OR SWAP1 SSTORE JUMP JUMPDEST PUSH1 0x2 DUP2 JUMP JUMPDEST PUSH1 0x0 PUSH1 0x60 PUSH1 0x2 DUP4 PUSH1 0x40 MLOAD PUSH2 0xC60 SWAP2 SWAP1 PUSH2 0x126C JUMP JUMPDEST SWAP1 DUP2 MSTORE PUSH1 0x20 ADD PUSH1 0x40 MLOAD DUP1 SWAP2 SUB SWAP1 KECCAK256 SLOAD PUSH1 0x3 DUP5 PUSH1 0x40 MLOAD PUSH2 0xC7F SWAP2 SWAP1 PUSH2 0x126C JUMP JUMPDEST SWAP1 DUP2 MSTORE PUSH1 0x20 ADD PUSH1 0x40 MLOAD DUP1 SWAP2 SUB SWAP1 KECCAK256 DUP1 DUP1 SLOAD DUP1 PUSH1 0x20 MUL PUSH1 0x20 ADD PUSH1 0x40 MLOAD SWAP1 DUP2 ADD PUSH1 0x40 MSTORE DUP1 SWAP3 SWAP2 SWAP1 DUP2 DUP2 MSTORE PUSH1 0x20 ADD PUSH1 0x0 SWAP1 JUMPDEST DUP3 DUP3 LT ISZERO PUSH2 0xD32 JUMPI PUSH1 0x0 DUP5 DUP2 MSTORE PUSH1 0x20 SWAP1 KECCAK256 PUSH1 0x40 DUP1 MLOAD DUP1 DUP3 ADD SWAP1 SWAP2 MSTORE PUSH1 0x2 DUP5 MUL SWAP1 SWAP2 ADD DUP1 SLOAD DUP3 SWAP1 PUSH1 0xFF AND PUSH1 0xD DUP2 GT ISZERO PUSH2 0xCF6 JUMPI PUSH4 0x4E487B71 PUSH1 0xE0 SHL PUSH1 0x0 MSTORE PUSH1 0x21 PUSH1 0x4 MSTORE PUSH1 0x24 PUSH1 0x0 REVERT JUMPDEST PUSH1 0xD DUP2 GT ISZERO PUSH2 0xD15 JUMPI PUSH4 0x4E487B71 PUSH1 0xE0 SHL PUSH1 0x0 MSTORE PUSH1 0x21 PUSH1 0x4 MSTORE PUSH1 0x24 PUSH1 0x0 REVERT JUMPDEST DUP2 MSTORE PUSH1 0x20 ADD PUSH1 0x1 DUP3 ADD SLOAD DUP2 MSTORE POP POP DUP2 MSTORE PUSH1 0x20 ADD SWAP1 PUSH1 0x1 ADD SWAP1 PUSH2 0xCAE JUMP JUMPDEST POP POP POP POP SWAP1 POP SWAP2 POP SWAP2 POP SWAP2 POP SWAP2 JUMP JUMPDEST PUSH2 0xD49 PUSH2 0xF08 JUMP JUMPDEST PUSH1 0x1 PUSH1 0x1 PUSH1 0xA0 SHL SUB AND PUSH2 0xD5A PUSH2 0xDD4 JUMP JUMPDEST PUSH1 0x1 PUSH1 0x1 PUSH1 0xA0 SHL SUB AND EQ PUSH2 0xD80 JUMPI PUSH1 0x40 MLOAD PUSH3 0x461BCD PUSH1 0xE5 SHL DUP2 MSTORE PUSH1 0x4 ADD PUSH2 0x504 SWAP1 PUSH2 0x14A6 JUMP JUMPDEST PUSH2 0xD8A PUSH1 0x0 PUSH2 0xF0C JUMP JUMPDEST JUMP JUMPDEST PUSH32 0x722F6341587ECCFF4E236840B2C6571211FB687822BAD2B7C7B37B130D4C6179 DUP2 JUMP JUMPDEST PUSH32 0x56109128F45DD89F29EC6E16DDCA878D12E9AEF78A8DBD2CAA537128FCE6500C DUP2 JUMP JUMPDEST PUSH1 0x0 SLOAD PUSH1 0x1 PUSH1 0x1 PUSH1 0xA0 SHL SUB AND SWAP1 JUMP JUMPDEST PUSH1 0x4 PUSH1 0x20 MSTORE PUSH1 0x0 SWAP1 DUP2 MSTORE PUSH1 0x40 SWAP1 KECCAK256 SLOAD DUP2 JUMP JUMPDEST DUP2 MLOAD PUSH1 0x20 DUP2 DUP5 ADD DUP2 ADD DUP1 MLOAD PUSH1 0x7 DUP3 MSTORE SWAP3 DUP3 ADD SWAP5 DUP3 ADD SWAP5 SWAP1 SWAP5 KECCAK256 SWAP2 SWAP1 SWAP4 MSTORE SWAP1 SWAP2 MSTORE PUSH1 0x0 SWAP1 DUP2 MSTORE PUSH1 0x40 SWAP1 KECCAK256 DUP1 SLOAD PUSH1 0x1 SWAP1 SWAP2 ADD SLOAD PUSH1 0xFF SWAP1 SWAP2 AND SWAP1 DUP3 JUMP JUMPDEST PUSH32 0x790B481F3D8436972ED2B30AC1CACD05CADAF09877D2B8F61833EC142E78E18E DUP2 JUMP JUMPDEST PUSH32 0x61CD7D15CDFFA40C46709434394974D23A1FA1DE25E8BD3810B54D419F7102E DUP2 JUMP JUMPDEST PUSH1 0x6 PUSH1 0x20 SWAP1 DUP2 MSTORE PUSH1 0x0 SWAP3 DUP4 MSTORE PUSH1 0x40 DUP1 DUP5 KECCAK256 SWAP1 SWAP2 MSTORE SWAP1 DUP3 MSTORE SWAP1 KECCAK256 SLOAD PUSH1 0xFF AND DUP2 JUMP JUMPDEST PUSH2 0xE9F PUSH2 0xF08 JUMP JUMPDEST PUSH1 0x1 PUSH1 0x1 PUSH1 0xA0 SHL SUB AND PUSH2 0xEB0 PUSH2 0xDD4 JUMP JUMPDEST PUSH1 0x1 PUSH1 0x1 PUSH1 0xA0 SHL SUB AND EQ PUSH2 0xED6 JUMPI PUSH1 0x40 MLOAD PUSH3 0x461BCD PUSH1 0xE5 SHL DUP2 MSTORE PUSH1 0x4 ADD PUSH2 0x504 SWAP1 PUSH2 0x14A6 JUMP JUMPDEST PUSH1 0x1 PUSH1 0x1 PUSH1 0xA0 SHL SUB DUP2 AND PUSH2 0xEFC JUMPI PUSH1 0x40 MLOAD PUSH3 0x461BCD PUSH1 0xE5 SHL DUP2 MSTORE PUSH1 0x4 ADD PUSH2 0x504 SWAP1 PUSH2 0x1414 JUMP JUMPDEST PUSH2 0xF05 DUP2 PUSH2 0xF0C JUMP JUMPDEST POP JUMP JUMPDEST CALLER SWAP1 JUMP JUMPDEST PUSH1 0x0 DUP1 SLOAD PUSH1 0x1 PUSH1 0x1 PUSH1 0xA0 SHL SUB DUP4 DUP2 AND PUSH1 0x1 PUSH1 0x1 PUSH1 0xA0 SHL SUB NOT DUP4 AND DUP2 OR DUP5 SSTORE PUSH1 0x40 MLOAD SWAP2 SWAP1 SWAP3 AND SWAP3 DUP4 SWAP2 PUSH32 0x8BE0079C531659141344CD1FD0A4F28419497F9722A3DAAFE3B4186F6B6457E0 SWAP2 SWAP1 LOG3 POP POP JUMP JUMPDEST DUP1 CALLDATALOAD PUSH1 0x1 PUSH1 0x1 PUSH1 0xA0 SHL SUB DUP2 AND DUP2 EQ PUSH2 0xF73 JUMPI PUSH1 0x0 DUP1 REVERT JUMPDEST SWAP2 SWAP1 POP JUMP JUMPDEST PUSH1 0x0 DUP3 PUSH1 0x1F DUP4 ADD SLT PUSH2 0xF88 JUMPI DUP1 DUP2 REVERT JUMPDEST DUP2 CALLDATALOAD PUSH8 0xFFFFFFFFFFFFFFFF DUP1 DUP3 GT ISZERO PUSH2 0xFA3 JUMPI PUSH2 0xFA3 PUSH2 0x157F JUMP JUMPDEST PUSH1 0x40 MLOAD PUSH1 0x1F DUP4 ADD PUSH1 0x1F NOT AND DUP2 ADD PUSH1 0x20 ADD DUP3 DUP2 GT DUP3 DUP3 LT OR ISZERO PUSH2 0xFC7 JUMPI PUSH2 0xFC7 PUSH2 0x157F JUMP JUMPDEST PUSH1 0x40 MSTORE DUP3 DUP2 MSTORE DUP5 DUP4 ADD PUSH1 0x20 ADD DUP7 LT ISZERO PUSH2 0xFDE JUMPI DUP4 DUP5 REVERT JUMPDEST DUP3 PUSH1 0x20 DUP7 ADD PUSH1 0x20 DUP4 ADD CALLDATACOPY SWAP2 DUP3 ADD PUSH1 0x20 ADD SWAP3 SWAP1 SWAP3 MSTORE SWAP4 SWAP3 POP POP POP JUMP JUMPDEST PUSH1 0x0 PUSH1 0x20 DUP3 DUP5 SUB SLT ISZERO PUSH2 0x100A JUMPI DUP1 DUP2 REVERT JUMPDEST PUSH2 0x78D DUP3 PUSH2 0xF5C JUMP JUMPDEST PUSH1 0x0 DUP1 PUSH1 0x40 DUP4 DUP6 SUB SLT ISZERO PUSH2 0x1025 JUMPI DUP1 DUP2 REVERT JUMPDEST PUSH2 0x102E DUP4 PUSH2 0xF5C JUMP JUMPDEST SWAP5 PUSH1 0x20 SWAP4 SWAP1 SWAP4 ADD CALLDATALOAD SWAP4 POP POP POP JUMP JUMPDEST PUSH1 0x0 DUP1 PUSH1 0x40 DUP4 DUP6 SUB SLT ISZERO PUSH2 0x104E JUMPI DUP2 DUP3 REVERT JUMPDEST DUP3 CALLDATALOAD SWAP2 POP PUSH2 0x105E PUSH1 0x20 DUP5 ADD PUSH2 0xF5C JUMP JUMPDEST SWAP1 POP SWAP3 POP SWAP3 SWAP1 POP JUMP JUMPDEST PUSH1 0x0 DUP1 PUSH1 0x40 DUP4 DUP6 SUB SLT ISZERO PUSH2 0x1079 JUMPI DUP2 DUP3 REVERT JUMPDEST POP POP DUP1 CALLDATALOAD SWAP3 PUSH1 0x20 SWAP1 SWAP2 ADD CALLDATALOAD SWAP2 POP JUMP JUMPDEST PUSH1 0x0 DUP1 PUSH1 0x0 PUSH1 0x40 DUP5 DUP7 SUB SLT ISZERO PUSH2 0x109C JUMPI DUP1 DUP2 REVERT JUMPDEST DUP4 CALLDATALOAD PUSH8 0xFFFFFFFFFFFFFFFF DUP1 DUP3 GT ISZERO PUSH2 0x10B3 JUMPI DUP3 DUP4 REVERT JUMPDEST DUP2 DUP7 ADD SWAP2 POP DUP7 PUSH1 0x1F DUP4 ADD SLT PUSH2 0x10C6 JUMPI DUP3 DUP4 REVERT JUMPDEST DUP2 CALLDATALOAD DUP2 DUP2 GT ISZERO PUSH2 0x10D4 JUMPI DUP4 DUP5 REVERT JUMPDEST DUP8 PUSH1 0x20 DUP3 DUP6 ADD ADD GT ISZERO PUSH2 0x10E5 JUMPI DUP4 DUP5 REVERT JUMPDEST PUSH1 0x20 SWAP3 DUP4 ADD SWAP9 SWAP1 SWAP8 POP SWAP6 SWAP1 SWAP2 ADD CALLDATALOAD SWAP5 SWAP4 POP POP POP POP JUMP JUMPDEST PUSH1 0x0 PUSH1 0x20 DUP3 DUP5 SUB SLT ISZERO PUSH2 0x110C JUMPI DUP1 DUP2 REVERT JUMPDEST DUP2 CALLDATALOAD PUSH8 0xFFFFFFFFFFFFFFFF DUP2 GT ISZERO PUSH2 0x1122 JUMPI DUP2 DUP3 REVERT JUMPDEST PUSH2 0x112E DUP5 DUP3 DUP6 ADD PUSH2 0xF78 JUMP JUMPDEST SWAP5 SWAP4 POP POP POP POP JUMP JUMPDEST PUSH1 0x0 DUP1 PUSH1 0x40 DUP4 DUP6 SUB SLT ISZERO PUSH2 0x1148 JUMPI DUP2 DUP3 REVERT JUMPDEST DUP3 CALLDATALOAD PUSH8 0xFFFFFFFFFFFFFFFF DUP2 GT ISZERO PUSH2 0x115E JUMPI DUP3 DUP4 REVERT JUMPDEST PUSH2 0x116A DUP6 DUP3 DUP7 ADD PUSH2 0xF78 JUMP JUMPDEST SWAP6 PUSH1 0x20 SWAP5 SWAP1 SWAP5 ADD CALLDATALOAD SWAP5 POP POP POP POP JUMP JUMPDEST PUSH1 0x0 DUP1 PUSH1 0x40 DUP4 DUP6 SUB SLT ISZERO PUSH2 0x118B JUMPI DUP2 DUP3 REVERT JUMPDEST DUP3 CALLDATALOAD PUSH8 0xFFFFFFFFFFFFFFFF DUP2 GT ISZERO PUSH2 0x11A1 JUMPI DUP3 DUP4 REVERT JUMPDEST PUSH2 0x11AD DUP6 DUP3 DUP7 ADD PUSH2 0xF78 JUMP JUMPDEST SWAP3 POP POP PUSH1 0x20 DUP4 ADD CALLDATALOAD PUSH1 0xE DUP2 LT PUSH2 0x11C1 JUMPI DUP2 DUP3 REVERT JUMPDEST DUP1 SWAP2 POP POP SWAP3 POP SWAP3 SWAP1 POP JUMP JUMPDEST PUSH1 0x0 PUSH1 0x20 DUP3 DUP5 SUB SLT ISZERO PUSH2 0x11DD JUMPI DUP1 DUP2 REVERT JUMPDEST POP CALLDATALOAD SWAP2 SWAP1 POP JUMP JUMPDEST PUSH1 0xE DUP2 LT PUSH2 0x1202 JUMPI PUSH4 0x4E487B71 PUSH1 0xE0 SHL PUSH1 0x0 MSTORE PUSH1 0x21 PUSH1 0x4 MSTORE PUSH1 0x24 PUSH1 0x0 REVERT JUMPDEST SWAP1 MSTORE JUMP JUMPDEST PUSH1 0x0 DUP3 DUP5 MSTORE DUP3 DUP3 PUSH1 0x20 DUP7 ADD CALLDATACOPY DUP1 PUSH1 0x20 DUP5 DUP7 ADD ADD MSTORE PUSH1 0x20 PUSH1 0x1F NOT PUSH1 0x1F DUP6 ADD AND DUP6 ADD ADD SWAP1 POP SWAP4 SWAP3 POP POP POP JUMP JUMPDEST PUSH1 0x0 DUP2 MLOAD DUP1 DUP5 MSTORE PUSH2 0x1248 DUP2 PUSH1 0x20 DUP7 ADD PUSH1 0x20 DUP7 ADD PUSH2 0x152C JUMP JUMPDEST PUSH1 0x1F ADD PUSH1 0x1F NOT AND SWAP3 SWAP1 SWAP3 ADD PUSH1 0x20 ADD SWAP3 SWAP2 POP POP JUMP JUMPDEST PUSH1 0x0 DUP3 DUP5 DUP4 CALLDATACOPY SWAP2 ADD SWAP1 DUP2 MSTORE SWAP2 SWAP1 POP JUMP JUMPDEST PUSH1 0x0 DUP3 MLOAD PUSH2 0x127E DUP2 DUP5 PUSH1 0x20 DUP8 ADD PUSH2 0x152C JUMP JUMPDEST SWAP2 SWAP1 SWAP2 ADD SWAP3 SWAP2 POP POP JUMP JUMPDEST PUSH1 0x1 PUSH1 0x1 PUSH1 0xA0 SHL SUB SWAP2 SWAP1 SWAP2 AND DUP2 MSTORE PUSH1 0x20 ADD SWAP1 JUMP JUMPDEST SWAP1 ISZERO ISZERO DUP2 MSTORE PUSH1 0x20 ADD SWAP1 JUMP JUMPDEST SWAP2 ISZERO ISZERO DUP3 MSTORE PUSH1 0x20 DUP3 ADD MSTORE PUSH1 0x40 ADD SWAP1 JUMP JUMPDEST SWAP1 DUP2 MSTORE PUSH1 0x20 ADD SWAP1 JUMP JUMPDEST PUSH1 0x0 PUSH1 0x40 DUP1 DUP4 ADD DUP6 DUP5 MSTORE PUSH1 0x20 DUP3 DUP2 DUP7 ADD MSTORE DUP2 DUP7 MLOAD DUP1 DUP5 MSTORE PUSH1 0x60 DUP8 ADD SWAP2 POP DUP3 DUP9 ADD SWAP4 POP DUP6 JUMPDEST DUP2 DUP2 LT ISZERO PUSH2 0x1310 JUMPI DUP5 MLOAD PUSH2 0x12F9 DUP5 DUP3 MLOAD PUSH2 0x11E4 JUMP JUMPDEST DUP5 ADD MLOAD DUP4 DUP6 ADD MSTORE SWAP4 DUP4 ADD SWAP4 SWAP2 DUP6 ADD SWAP2 PUSH1 0x1 ADD PUSH2 0x12E4 JUMP JUMPDEST POP SWAP1 SWAP9 SWAP8 POP POP POP POP POP POP POP POP JUMP JUMPDEST PUSH1 0x20 DUP2 ADD PUSH2 0x132C DUP3 DUP5 PUSH2 0x11E4 JUMP JUMPDEST SWAP3 SWAP2 POP POP JUMP JUMPDEST PUSH1 0x40 DUP2 ADD PUSH2 0x1340 DUP3 DUP6 PUSH2 0x11E4 JUMP JUMPDEST DUP3 PUSH1 0x20 DUP4 ADD MSTORE SWAP4 SWAP3 POP POP POP JUMP JUMPDEST PUSH1 0x0 PUSH1 0x40 DUP3 MSTORE PUSH2 0x1361 PUSH1 0x40 DUP4 ADD DUP6 DUP8 PUSH2 0x1206 JUMP JUMPDEST SWAP1 POP DUP3 PUSH1 0x20 DUP4 ADD MSTORE SWAP5 SWAP4 POP POP POP POP JUMP JUMPDEST PUSH1 0x0 PUSH1 0x60 DUP3 MSTORE PUSH2 0x1385 PUSH1 0x60 DUP4 ADD DUP7 DUP9 PUSH2 0x1206 JUMP JUMPDEST PUSH1 0x20 DUP4 ADD SWAP5 SWAP1 SWAP5 MSTORE POP PUSH1 0x1 PUSH1 0x1 PUSH1 0xA0 SHL SUB SWAP2 SWAP1 SWAP2 AND PUSH1 0x40 SWAP1 SWAP2 ADD MSTORE SWAP3 SWAP2 POP POP JUMP JUMPDEST PUSH1 0x0 PUSH1 0x60 DUP3 MSTORE PUSH2 0x13B9 PUSH1 0x60 DUP4 ADD DUP7 PUSH2 0x1230 JUMP JUMPDEST PUSH1 0x20 DUP4 ADD SWAP5 SWAP1 SWAP5 MSTORE POP PUSH1 0x1 PUSH1 0x1 PUSH1 0xA0 SHL SUB SWAP2 SWAP1 SWAP2 AND PUSH1 0x40 SWAP1 SWAP2 ADD MSTORE SWAP2 SWAP1 POP JUMP JUMPDEST PUSH1 0x0 PUSH1 0x60 DUP3 MSTORE PUSH2 0x13EC PUSH1 0x60 DUP4 ADD DUP7 PUSH2 0x1230 JUMP JUMPDEST SWAP1 POP PUSH2 0x13FB PUSH1 0x20 DUP4 ADD DUP6 PUSH2 0x11E4 JUMP JUMPDEST PUSH1 0x1 PUSH1 0x1 PUSH1 0xA0 SHL SUB SWAP3 SWAP1 SWAP3 AND PUSH1 0x40 SWAP2 SWAP1 SWAP2 ADD MSTORE SWAP3 SWAP2 POP POP JUMP JUMPDEST PUSH1 0x20 DUP1 DUP3 MSTORE PUSH1 0x26 SWAP1 DUP3 ADD MSTORE PUSH32 0x4F776E61626C653A206E6577206F776E657220697320746865207A65726F2061 PUSH1 0x40 DUP3 ADD MSTORE PUSH6 0x646472657373 PUSH1 0xD0 SHL PUSH1 0x60 DUP3 ADD MSTORE PUSH1 0x80 ADD SWAP1 JUMP JUMPDEST PUSH1 0x20 DUP1 DUP3 MSTORE PUSH1 0xB SWAP1 DUP3 ADD MSTORE PUSH11 0x13DC99195C88195E1A5CDD PUSH1 0xAA SHL PUSH1 0x40 DUP3 ADD MSTORE PUSH1 0x60 ADD SWAP1 JUMP JUMPDEST PUSH1 0x20 DUP1 DUP3 MSTORE PUSH1 0xD SWAP1 DUP3 ADD MSTORE PUSH13 0x2737903832B936B4B9B9B4B7B7 PUSH1 0x99 SHL PUSH1 0x40 DUP3 ADD MSTORE PUSH1 0x60 ADD SWAP1 JUMP JUMPDEST PUSH1 0x20 DUP1 DUP3 MSTORE DUP2 DUP2 ADD MSTORE PUSH32 0x4F776E61626C653A2063616C6C6572206973206E6F7420746865206F776E6572 PUSH1 0x40 DUP3 ADD MSTORE PUSH1 0x60 ADD SWAP1 JUMP JUMPDEST PUSH1 0x20 DUP1 DUP3 MSTORE PUSH1 0xE SWAP1 DUP3 ADD MSTORE PUSH14 0x2737BA103832B936B4B9B9B4B7B7 PUSH1 0x91 SHL PUSH1 0x40 DUP3 ADD MSTORE PUSH1 0x60 ADD SWAP1 JUMP JUMPDEST PUSH1 0x20 DUP1 DUP3 MSTORE PUSH1 0xF SWAP1 DUP3 ADD MSTORE PUSH15 0x13DC99195C881B9BDD08195E1A5CDD PUSH1 0x8A SHL PUSH1 0x40 DUP3 ADD MSTORE PUSH1 0x60 ADD SWAP1 JUMP JUMPDEST PUSH1 0x0 JUMPDEST DUP4 DUP2 LT ISZERO PUSH2 0x1547 JUMPI DUP2 DUP2 ADD MLOAD DUP4 DUP3 ADD MSTORE PUSH1 0x20 ADD PUSH2 0x152F JUMP JUMPDEST DUP4 DUP2 GT ISZERO PUSH2 0x8EC JUMPI POP POP PUSH1 0x0 SWAP2 ADD MSTORE JUMP JUMPDEST PUSH1 0x0 PUSH1 0x0 NOT DUP3 EQ ISZERO PUSH2 0x1578 JUMPI PUSH4 0x4E487B71 PUSH1 0xE0 SHL DUP2 MSTORE PUSH1 0x11 PUSH1 0x4 MSTORE PUSH1 0x24 DUP2 REVERT JUMPDEST POP PUSH1 0x1 ADD SWAP1 JUMP JUMPDEST PUSH4 0x4E487B71 PUSH1 0xE0 SHL PUSH1 0x0 MSTORE PUSH1 0x41 PUSH1 0x4 MSTORE PUSH1 0x24 PUSH1 0x0 REVERT INVALID LOG2 PUSH5 0x6970667358 0x22 SLT KECCAK256 0x2E SWAP10 CALLVALUE SELFDESTRUCT AND 0xE1 PUSH27 0x66CAB4C9D2A89673A5EEBE76839AB3C3C9E9FF147378B2F5006473 PUSH16 0x6C634300080000330000000000000000 "
        },
        "gasEstimates": {
          "creation": {
            "codeDepositCost": "1115800",
            "executionCost": "605114",
            "totalCost": "1720914"
          },
          "external": {
            "NCC_ROLE()": "272",
            "NVDP_ROLE()": "294",
            "NVGH_ROLE()": "361",
            "NVKD_ROLE()": "339",
            "QL_ROLE()": "273",
            "SHOP_ROLE()": "252",
            "addTransaction(string,bytes32)": "infinite",
            "confirmTransaction(string,bytes32)": "infinite",
            "consensusTx(string,bytes32)": "infinite",
            "getOrder(string)": "infinite",
            "issue(string,bytes32)": "infinite",
            "orders(string)": "infinite",
            "owner()": "1115",
            "renounceOwnership()": "23593",
            "requires()": "273",
            "roles(address)": "1319",
            "rules(bytes32,uint256)": "3894",
            "setRole(address,bytes32)": "20462",
            "setSigner(address)": "42960",
            "signatures(bytes32,address)": "1450",
            "signers(uint256)": "2150",
            "statusHistory(string,uint256)": "infinite",
            "submitTransaction(string,bytes32)": "infinite",
            "transferOwnership(address)": "23809",
            "updateOrderStatus(string,uint8)": "infinite"
          },
          "internal": {
            "initRules()": "infinite"
          }
        },
        "methodIdentifiers": {
          "NCC_ROLE()": "d5af096d",
          "NVDP_ROLE()": "d5b98820",
          "NVGH_ROLE()": "89b2465d",
          "NVKD_ROLE()": "71d05b7e",
          "QL_ROLE()": "3fc770a5",
          "SHOP_ROLE()": "01d0216c",
          "addTransaction(string,bytes32)": "123e7582",
          "confirmTransaction(string,bytes32)": "673132e2",
          "consensusTx(string,bytes32)": "bb9a932c",
          "getOrder(string)": "712ca0f8",
          "issue(string,bytes32)": "3a5f4e86",
          "orders(string)": "1a948947",
          "owner()": "8da5cb5b",
          "renounceOwnership()": "715018a6",
          "requires()": "7068fab9",
          "roles(address)": "99374642",
          "rules(bytes32,uint256)": "4749a63f",
          "setRole(address,bytes32)": "06577f26",
          "setSigner(address)": "6c19e783",
          "signatures(bytes32,address)": "dc18fa95",
          "signers(uint256)": "2079fb9a",
          "statusHistory(string,uint256)": "364476ed",
          "submitTransaction(string,bytes32)": "466cf7a8",
          "transferOwnership(address)": "f2fde38b",
          "updateOrderStatus(string,uint8)": "674f2948"
        }
      },
      "storageLayout": {
        "storage": [
          {
            "astId": 7,
            "contract": "contracts/OrderStore.sol:OrderStore",
            "label": "_owner",
            "offset": 0,
            "slot": "0",
            "type": "t_address"
          },
          {
            "astId": 162,
            "contract": "contracts/OrderStore.sol:OrderStore",
            "label": "name",
            "offset": 0,
            "slot": "1",
            "type": "t_string_storage"
          },
          {
            "astId": 193,
            "contract": "contracts/OrderStore.sol:OrderStore",
            "label": "orders",
            "offset": 0,
            "slot": "2",
            "type": "t_mapping(t_string_memory_ptr,t_bytes32)"
          },
          {
            "astId": 200,
            "contract": "contracts/OrderStore.sol:OrderStore",
            "label": "statusHistory",
            "offset": 0,
            "slot": "3",
            "type": "t_mapping(t_string_memory_ptr,t_array(t_struct(StatusHistory)183_storage)dyn_storage)"
          },
          {
            "astId": 205,
            "contract": "contracts/OrderStore.sol:OrderStore",
            "label": "roles",
            "offset": 0,
            "slot": "4",
            "type": "t_mapping(t_address,t_bytes32)"
          },
          {
            "astId": 212,
            "contract": "contracts/OrderStore.sol:OrderStore",
            "label": "rules",
            "offset": 0,
            "slot": "5",
            "type": "t_mapping(t_bytes32,t_array(t_enum(OrderStatus)177)dyn_storage)"
          },
          {
            "astId": 219,
            "contract": "contracts/OrderStore.sol:OrderStore",
            "label": "signatures",
            "offset": 0,
            "slot": "6",
            "type": "t_mapping(t_bytes32,t_mapping(t_address,t_bool))"
          },
          {
            "astId": 227,
            "contract": "contracts/OrderStore.sol:OrderStore",
            "label": "consensusTx",
            "offset": 0,
            "slot": "7",
            "type": "t_mapping(t_string_memory_ptr,t_mapping(t_bytes32,t_struct(Consensus)188_storage))"
          },
          {
            "astId": 230,
            "contract": "contracts/OrderStore.sol:OrderStore",
            "label": "signers",
            "offset": 0,
            "slot": "8",
            "type": "t_array(t_address)dyn_storage"
          }
        ],
        "types": {
          "t_address": {
            "encoding": "inplace",
            "label": "address",
            "numberOfBytes": "20"
          },
          "t_array(t_address)dyn_storage": {
            "base": "t_address",
            "encoding": "dynamic_array",
            "label": "address[]",
            "numberOfBytes": "32"
          },
          "t_array(t_enum(OrderStatus)177)dyn_storage": {
            "base": "t_enum(OrderStatus)177",
            "encoding": "dynamic_array",
            "label": "enum OrderStore.OrderStatus[]",
            "numberOfBytes": "32"
          },
          "t_array(t_struct(StatusHistory)183_storage)dyn_storage": {
            "base": "t_struct(StatusHistory)183_storage",
            "encoding": "dynamic_array",
            "label": "struct OrderStore.StatusHistory[]",
            "numberOfBytes": "32"
          },
          "t_bool": {
            "encoding": "inplace",
            "label": "bool",
            "numberOfBytes": "1"
          },
          "t_bytes32": {
            "encoding": "inplace",
            "label": "bytes32",
            "numberOfBytes": "32"
          },
          "t_enum(OrderStatus)177": {
            "encoding": "inplace",
            "label": "enum OrderStore.OrderStatus",
            "numberOfBytes": "1"
          },
          "t_mapping(t_address,t_bool)": {
            "encoding": "mapping",
            "key": "t_address",
            "label": "mapping(address => bool)",
            "numberOfBytes": "32",
            "value": "t_bool"
          },
          "t_mapping(t_address,t_bytes32)": {
            "encoding": "mapping",
            "key": "t_address",
            "label": "mapping(address => bytes32)",
            "numberOfBytes": "32",
            "value": "t_bytes32"
          },
          "t_mapping(t_bytes32,t_array(t_enum(OrderStatus)177)dyn_storage)": {
            "encoding": "mapping",
            "key": "t_bytes32",
            "label": "mapping(bytes32 => enum OrderStore.OrderStatus[])",
            "numberOfBytes": "32",
            "value": "t_array(t_enum(OrderStatus)177)dyn_storage"
          },
          "t_mapping(t_bytes32,t_mapping(t_address,t_bool))": {
            "encoding": "mapping",
            "key": "t_bytes32",
            "label": "mapping(bytes32 => mapping(address => bool))",
            "numberOfBytes": "32",
            "value": "t_mapping(t_address,t_bool)"
          },
          "t_mapping(t_bytes32,t_struct(Consensus)188_storage)": {
            "encoding": "mapping",
            "key": "t_bytes32",
            "label": "mapping(bytes32 => struct OrderStore.Consensus)",
            "numberOfBytes": "32",
            "value": "t_struct(Consensus)188_storage"
          },
          "t_mapping(t_string_memory_ptr,t_array(t_struct(StatusHistory)183_storage)dyn_storage)": {
            "encoding": "mapping",
            "key": "t_string_memory_ptr",
            "label": "mapping(string => struct OrderStore.StatusHistory[])",
            "numberOfBytes": "32",
            "value": "t_array(t_struct(StatusHistory)183_storage)dyn_storage"
          },
          "t_mapping(t_string_memory_ptr,t_bytes32)": {
            "encoding": "mapping",
            "key": "t_string_memory_ptr",
            "label": "mapping(string => bytes32)",
            "numberOfBytes": "32",
            "value": "t_bytes32"
          },
          "t_mapping(t_string_memory_ptr,t_mapping(t_bytes32,t_struct(Consensus)188_storage))": {
            "encoding": "mapping",
            "key": "t_string_memory_ptr",
            "label": "mapping(string => mapping(bytes32 => struct OrderStore.Consensus))",
            "numberOfBytes": "32",
            "value": "t_mapping(t_bytes32,t_struct(Consensus)188_storage)"
          },
          "t_string_memory_ptr": {
            "encoding": "bytes",
            "label": "string",
            "numberOfBytes": "32"
          },
          "t_string_storage": {
            "encoding": "bytes",
            "label": "string",
            "numberOfBytes": "32"
          },
          "t_struct(Consensus)188_storage": {
            "encoding": "inplace",
            "label": "struct OrderStore.Consensus",
            "members": [
              {
                "astId": 185,
                "contract": "contracts/OrderStore.sol:OrderStore",
                "label": "verified",
                "offset": 0,
                "slot": "0",
                "type": "t_bool"
              },
              {
                "astId": 187,
                "contract": "contracts/OrderStore.sol:OrderStore",
                "label": "timestamp",
                "offset": 0,
                "slot": "1",
                "type": "t_uint256"
              }
            ],
            "numberOfBytes": "64"
          },
          "t_struct(StatusHistory)183_storage": {
            "encoding": "inplace",
            "label": "struct OrderStore.StatusHistory",
            "members": [
              {
                "astId": 180,
                "contract": "contracts/OrderStore.sol:OrderStore",
                "label": "status",
                "offset": 0,
                "slot": "0",
                "type": "t_enum(OrderStatus)177"
              },
              {
                "astId": 182,
                "contract": "contracts/OrderStore.sol:OrderStore",
                "label": "atBlock",
                "offset": 0,
                "slot": "1",
                "type": "t_uint256"
              }
            ],
            "numberOfBytes": "64"
          },
          "t_uint256": {
            "encoding": "inplace",
            "label": "uint256",
            "numberOfBytes": "32"
          }
        }
      },
      "userdoc": {
        "kind": "user",
        "methods": {
          "consensusTx(string,bytes32)": {
            "notice": "A mapping of consensus hash to signed"
          },
          "orders(string)": {
            "notice": "A mapping of the order id to the hash that was issued"
          },
          "roles(address)": {
            "notice": "A mapping of the address to role"
          },
          "rules(bytes32,uint256)": {
            "notice": "A mapping of role to status can accept"
          },
          "signatures(bytes32,address)": {
            "notice": "A mapping of consensus hash to signed"
          },
          "statusHistory(string,uint256)": {
            "notice": "A mapping of the order id to order status throught time"
          }
        },
        "version": 1
      }
    }
  }
}