{
  "_format": "hh-sol-artifact-1",
  "contractName": "OrderStore",
  "sourceName": "contracts/OrderStore.sol",
  "abi": [
    {
      "inputs": [],
      "stateMutability": "nonpayable",
      "type": "constructor"
    },
    {
      "anonymous": false,
      "inputs": [
        {
          "indexed": false,
          "internalType": "string",
          "name": "orderId",
          "type": "string"
        },
        {
          "indexed": false,
          "internalType": "bytes32",
          "name": "orderHash",
          "type": "bytes32"
        },
        {
          "indexed": false,
          "internalType": "address",
          "name": "sender",
          "type": "address"
        }
      ],
      "name": "OrderUpload",
      "type": "event"
    },
    {
      "anonymous": false,
      "inputs": [
        {
          "indexed": true,
          "internalType": "address",
          "name": "previousOwner",
          "type": "address"
        },
        {
          "indexed": true,
          "internalType": "address",
          "name": "newOwner",
          "type": "address"
        }
      ],
      "name": "OwnershipTransferred",
      "type": "event"
    },
    {
      "anonymous": false,
      "inputs": [
        {
          "indexed": false,
          "internalType": "string",
          "name": "id",
          "type": "string"
        },
        {
          "indexed": false,
          "internalType": "bytes32",
          "name": "data",
          "type": "bytes32"
        },
        {
          "indexed": false,
          "internalType": "address",
          "name": "signers",
          "type": "address"
        }
      ],
      "name": "Sign",
      "type": "event"
    },
    {
      "anonymous": false,
      "inputs": [
        {
          "indexed": false,
          "internalType": "string",
          "name": "orderId",
          "type": "string"
        },
        {
          "indexed": false,
          "internalType": "enum OrderStore.OrderStatus",
          "name": "status",
          "type": "uint8"
        },
        {
          "indexed": false,
          "internalType": "address",
          "name": "sender",
          "type": "address"
        }
      ],
      "name": "UpdateStatus",
      "type": "event"
    },
    {
      "anonymous": false,
      "inputs": [
        {
          "indexed": false,
          "internalType": "string",
          "name": "id",
          "type": "string"
        },
        {
          "indexed": false,
          "internalType": "bytes32",
          "name": "data",
          "type": "bytes32"
        }
      ],
      "name": "Verify",
      "type": "event"
    },
    {
      "inputs": [],
      "name": "NCC_ROLE",
      "outputs": [
        {
          "internalType": "bytes32",
          "name": "",
          "type": "bytes32"
        }
      ],
      "stateMutability": "view",
      "type": "function"
    },
    {
      "inputs": [],
      "name": "NVDP_ROLE",
      "outputs": [
        {
          "internalType": "bytes32",
          "name": "",
          "type": "bytes32"
        }
      ],
      "stateMutability": "view",
      "type": "function"
    },
    {
      "inputs": [],
      "name": "NVGH_ROLE",
      "outputs": [
        {
          "internalType": "bytes32",
          "name": "",
          "type": "bytes32"
        }
      ],
      "stateMutability": "view",
      "type": "function"
    },
    {
      "inputs": [],
      "name": "NVKD_ROLE",
      "outputs": [
        {
          "internalType": "bytes32",
          "name": "",
          "type": "bytes32"
        }
      ],
      "stateMutability": "view",
      "type": "function"
    },
    {
      "inputs": [],
      "name": "QL_ROLE",
      "outputs": [
        {
          "internalType": "bytes32",
          "name": "",
          "type": "bytes32"
        }
      ],
      "stateMutability": "view",
      "type": "function"
    },
    {
      "inputs": [],
      "name": "SHOP_ROLE",
      "outputs": [
        {
          "internalType": "bytes32",
          "name": "",
          "type": "bytes32"
        }
      ],
      "stateMutability": "view",
      "type": "function"
    },
    {
      "inputs": [
        {
          "internalType": "string",
          "name": "id",
          "type": "string"
        },
        {
          "internalType": "bytes32",
          "name": "data",
          "type": "bytes32"
        }
      ],
      "name": "addTransaction",
      "outputs": [],
      "stateMutability": "nonpayable",
      "type": "function"
    },
    {
      "inputs": [
        {
          "internalType": "string",
          "name": "id",
          "type": "string"
        },
        {
          "internalType": "address",
          "name": "signer",
          "type": "address"
        }
      ],
      "name": "checkSigned",
      "outputs": [
        {
          "internalType": "bool",
          "name": "",
          "type": "bool"
        }
      ],
      "stateMutability": "nonpayable",
      "type": "function"
    },
    {
      "inputs": [
        {
          "internalType": "string",
          "name": "id",
          "type": "string"
        },
        {
          "internalType": "bytes32",
          "name": "data",
          "type": "bytes32"
        }
      ],
      "name": "confirmTransaction",
      "outputs": [],
      "stateMutability": "nonpayable",
      "type": "function"
    },
    {
      "inputs": [
        {
          "internalType": "string",
          "name": "",
          "type": "string"
        }
      ],
      "name": "consensusTx",
      "outputs": [
        {
          "internalType": "bytes32",
          "name": "data",
          "type": "bytes32"
        },
        {
          "internalType": "bool",
          "name": "verified",
          "type": "bool"
        },
        {
          "internalType": "uint256",
          "name": "timestamp",
          "type": "uint256"
        }
      ],
      "stateMutability": "view",
      "type": "function"
    },
    {
      "inputs": [
        {
          "internalType": "string",
          "name": "orderId",
          "type": "string"
        },
        {
          "internalType": "bytes32",
          "name": "orderHash",
          "type": "bytes32"
        }
      ],
      "name": "createOrder",
      "outputs": [],
      "stateMutability": "nonpayable",
      "type": "function"
    },
    {
      "inputs": [
        {
          "internalType": "string",
          "name": "id",
          "type": "string"
        }
      ],
      "name": "getConsensus",
      "outputs": [
        {
          "components": [
            {
              "internalType": "bytes32",
              "name": "data",
              "type": "bytes32"
            },
            {
              "internalType": "bool",
              "name": "verified",
              "type": "bool"
            },
            {
              "internalType": "uint256",
              "name": "timestamp",
              "type": "uint256"
            }
          ],
          "internalType": "struct OrderStore.Consensus",
          "name": "",
          "type": "tuple"
        }
      ],
      "stateMutability": "nonpayable",
      "type": "function"
    },
    {
      "inputs": [
        {
          "internalType": "string",
          "name": "orderId",
          "type": "string"
        }
      ],
      "name": "getOrder",
      "outputs": [
        {
          "internalType": "bytes32",
          "name": "",
          "type": "bytes32"
        },
        {
          "components": [
            {
              "internalType": "enum OrderStore.OrderStatus",
              "name": "status",
              "type": "uint8"
            },
            {
              "internalType": "uint256",
              "name": "atBlock",
              "type": "uint256"
            }
          ],
          "internalType": "struct OrderStore.StatusHistory[]",
          "name": "",
          "type": "tuple[]"
        }
      ],
      "stateMutability": "view",
      "type": "function"
    },
    {
      "inputs": [
        {
          "internalType": "string",
          "name": "",
          "type": "string"
        }
      ],
      "name": "orders",
      "outputs": [
        {
          "internalType": "bytes32",
          "name": "",
          "type": "bytes32"
        }
      ],
      "stateMutability": "view",
      "type": "function"
    },
    {
      "inputs": [],
      "name": "owner",
      "outputs": [
        {
          "internalType": "address",
          "name": "",
          "type": "address"
        }
      ],
      "stateMutability": "view",
      "type": "function"
    },
    {
      "inputs": [],
      "name": "renounceOwnership",
      "outputs": [],
      "stateMutability": "nonpayable",
      "type": "function"
    },
    {
      "inputs": [],
      "name": "requires",
      "outputs": [
        {
          "internalType": "uint256",
          "name": "",
          "type": "uint256"
        }
      ],
      "stateMutability": "view",
      "type": "function"
    },
    {
      "inputs": [
        {
          "internalType": "address",
          "name": "",
          "type": "address"
        }
      ],
      "name": "roles",
      "outputs": [
        {
          "internalType": "bytes32",
          "name": "",
          "type": "bytes32"
        }
      ],
      "stateMutability": "view",
      "type": "function"
    },
    {
      "inputs": [
        {
          "internalType": "bytes32",
          "name": "",
          "type": "bytes32"
        },
        {
          "internalType": "uint256",
          "name": "",
          "type": "uint256"
        }
      ],
      "name": "rules",
      "outputs": [
        {
          "internalType": "enum OrderStore.OrderStatus",
          "name": "",
          "type": "uint8"
        }
      ],
      "stateMutability": "view",
      "type": "function"
    },
    {
      "inputs": [
        {
          "internalType": "address",
          "name": "user",
          "type": "address"
        },
        {
          "internalType": "bytes32",
          "name": "role",
          "type": "bytes32"
        }
      ],
      "name": "setRole",
      "outputs": [],
      "stateMutability": "nonpayable",
      "type": "function"
    },
    {
      "inputs": [
        {
          "internalType": "address",
          "name": "signer",
          "type": "address"
        }
      ],
      "name": "setSigner",
      "outputs": [],
      "stateMutability": "nonpayable",
      "type": "function"
    },
    {
      "inputs": [
        {
          "internalType": "bytes32",
          "name": "",
          "type": "bytes32"
        },
        {
          "internalType": "address",
          "name": "",
          "type": "address"
        }
      ],
      "name": "signatures",
      "outputs": [
        {
          "internalType": "bool",
          "name": "",
          "type": "bool"
        }
      ],
      "stateMutability": "view",
      "type": "function"
    },
    {
      "inputs": [
        {
          "internalType": "uint256",
          "name": "",
          "type": "uint256"
        }
      ],
      "name": "signers",
      "outputs": [
        {
          "internalType": "address",
          "name": "",
          "type": "address"
        }
      ],
      "stateMutability": "view",
      "type": "function"
    },
    {
      "inputs": [
        {
          "internalType": "string",
          "name": "",
          "type": "string"
        },
        {
          "internalType": "uint256",
          "name": "",
          "type": "uint256"
        }
      ],
      "name": "statusHistory",
      "outputs": [
        {
          "internalType": "enum OrderStore.OrderStatus",
          "name": "status",
          "type": "uint8"
        },
        {
          "internalType": "uint256",
          "name": "atBlock",
          "type": "uint256"
        }
      ],
      "stateMutability": "view",
      "type": "function"
    },
    {
      "inputs": [
        {
          "internalType": "string",
          "name": "id",
          "type": "string"
        },
        {
          "internalType": "bytes32",
          "name": "data",
          "type": "bytes32"
        }
      ],
      "name": "submitTransaction",
      "outputs": [
        {
          "internalType": "uint256",
          "name": "transactionId",
          "type": "uint256"
        }
      ],
      "stateMutability": "nonpayable",
      "type": "function"
    },
    {
      "inputs": [
        {
          "internalType": "address",
          "name": "newOwner",
          "type": "address"
        }
      ],
      "name": "transferOwnership",
      "outputs": [],
      "stateMutability": "nonpayable",
      "type": "function"
    },
    {
      "inputs": [
        {
          "internalType": "string",
          "name": "orderId",
          "type": "string"
        },
        {
          "internalType": "enum OrderStore.OrderStatus",
          "name": "status",
          "type": "uint8"
        }
      ],
      "name": "updateOrderStatus",
      "outputs": [],
      "stateMutability": "nonpayable",
      "type": "function"
    }
  ],
  "bytecode": "0x608060405234801561001057600080fd5b5061002161001c61009f565b6100a3565b3360008181526004602052604081207f722f6341587eccff4e236840b2c6571211fb687822bad2b7c7b37b130d4c617990556008805460018101825591527ff3f7a9fe364faab93b216da50a3214154f22a0a2b415b23a84c8169e8b636ee30180546001600160a01b031916909117905561009a6100f3565b61037c565b3390565b600080546001600160a01b038381166001600160a01b0319831681178455604051919092169283917f8be0079c531659141344cd1fd0a4f28419497f9722a3daafe3b4186f6b6457e09190a35050565b600560209081527febfa74d0d8525dac185537e0a178d2781e5b93766bca94c82da3b10443a1c3a68054600180820183557f999edeba1e6b0ba4cedbd423663cb7b4274061a032dc47e0f1cbe9b5c8f1514084830481018054601f94851661010090810a60ff908102199092169092558554808501875587810484018054918716840a60098102908402199092169190911790558554808501875587810484018054918716840a60088102908402199092169190911790558554808501875587810484018054918716840a600b81029084021990921691909117905585548085019096558686049092018054958516820a600a810290840219909616959095179094557f072b5618ca3fa2b7a26724d02b3b37fdbdd100f60cfaacd786ca0756445017e780548084019091557fca736f7ef4b0d56a0f16716dea1f3886a44d3baeb9fa621dc64fc41a866c249d868204018054918516860a8084021990921690911790557f2fe62e94ce8a924925dd98fe6970dd77db1d5936fe21c62074a276e434cb805d8054808401825560008290527f51f6466cc4ec25cfa2a835ede5d507298d34e28a301f9e76a3b84185797dd62d87820481018054928716880a6002810290860219909316929092179091558154808501835587810482018054918716880a60038102908602199092169190911790558154808501835587810482018054918716880a60048102908602199092169190911790558154808501835587810482018054918716880a60068102908602199092169190911790558154808501835587810482018054918716880a6007810290860219909216919091179055815493840190915594820490940180549190921690920a600d8102930219909116919091179055565b6117c58061038b6000396000f3fe608060405234801561001057600080fd5b50600436106101a95760003560e01c80636c19e783116100f95780639937464211610097578063d5af096d11610071578063d5af096d1461038d578063d5b9882014610395578063dc18fa951461039d578063f2fde38b146103b0576101a9565b80639937464214610347578063c16ec39c1461035a578063d25c0f3c1461037a576101a9565b8063715018a6116100d3578063715018a61461032757806371d05b7e1461032f57806389b2465d146103375780638da5cb5b1461033f576101a9565b80636c19e783146102eb5780637068fab9146102fe578063712ca0f814610306576101a9565b80633fc770a5116101665780634749a63f116101405780634749a63f14610283578063548f821e146102a3578063673132e2146102c5578063674f2948146102d8576101a9565b80633fc770a5146102485780634155868f14610250578063466cf7a814610270576101a9565b806301d0216c146101ae57806306577f26146101cc578063123e7582146101e15780631a948947146101f45780632079fb9a14610207578063364476ed14610227575b600080fd5b6101b66103c3565b6040516101c3919061147e565b60405180910390f35b6101df6101da366004611181565b6103e7565b005b6101df6101ef366004611288565b610403565b6101b66102023660046112d2565b61049b565b61021a6102153660046113a3565b6104b8565b6040516101c3919061145f565b61023a61023536600461130d565b6104e2565b6040516101c3929190611509565b6101b6610531565b61026361025e3660046111f6565b610555565b6040516101c39190611703565b6101b661027e366004611288565b6105ad565b6102966102913660046111d5565b6106f5565b6040516101c391906114fb565b6102b66102b13660046112d2565b610738565b6040516101c3939291906114e5565b6101df6102d3366004611288565b610767565b6101df6102e6366004611350565b61087c565b6101df6102f9366004611167565b610b40565b6101b6610bd1565b6103196103143660046112d2565b610bd6565b6040516101c3929190611487565b6101df610ccb565b6101b6610d16565b6101b6610d3a565b61021a610d5e565b6101b6610355366004611167565b610d6d565b61036d610368366004611236565b610d7f565b6040516101c39190611473565b6101df61038836600461130d565b610dd3565b6101b6610f36565b6101b6610f5a565b61036d6103ab3660046111aa565b610f7e565b6101df6103be366004611167565b610f9e565b7f1f0426c2589e5c3ea5f5996e2a4371ca21edd86514b6679c9dd135d7c85b28bf81565b6001600160a01b03909116600090815260046020526040902055565b60078383604051610415929190611433565b90815260200160405180910390206002015460001461043357610496565b60408051606081018252828152600060208201524281830152905160079061045e9086908690611433565b9081526040805160209281900383019020835181559183015160018301805460ff191691151591909117905591909101516002909101555b505050565b805160208183018101805160028252928201919093012091525481565b600881815481106104c857600080fd5b6000918252602090912001546001600160a01b0316905081565b8151602081840181018051600382529282019185019190912091905280548290811061050d57600080fd5b60009182526020909120600290910201805460019091015460ff9091169250905082565b7f80d27d05994edf4994028aeca85fdaca3f2d00ef05d9d609a8b295c631139a6581565b61055d611063565b6007838360405161056f929190611433565b90815260408051918290036020908101832060608401835280548452600181015460ff16151591840191909152600201549082015290505b92915050565b336000908152600460205260408120547f80d27d05994edf4994028aeca85fdaca3f2d00ef05d9d609a8b295c631139a6514806106185750336000908152600460205260409020547f1f0426c2589e5c3ea5f5996e2a4371ca21edd86514b6679c9dd135d7c85b28bf145b806106515750336000908152600460205260409020547f790b481f3d8436972ed2b30ac1cacd05cadaf09877d2b8f61833ec142e78e18e145b6106765760405162461bcd60e51b815260040161066d906116b2565b60405180910390fd5b610681848484610403565b600082815260066020908152604080832033808552925291829020805460ff1916600117905590517fd99a2beebf12926511bfbf00fb3a0c516ac8441690e20c8cdd25a86ccd70f9bb916106db9187918791879190611548565b60405180910390a16106ee848484610767565b9392505050565b6005602052816000526040600020818154811061071157600080fd5b9060005260206000209060209182820401919006915091509054906101000a900460ff1681565b8051602081830181018051600782529282019190930120915280546001820154600290920154909160ff169083565b6000805b6008548110156107fa57600083815260066020526040812060088054919291849081106107a857634e487b7160e01b600052603260045260246000fd5b60009182526020808320909101546001600160a01b0316835282019290925260400190205460ff161515600114156107e857816107e481611752565b9250505b806107f281611752565b91505061076b565b50600281141561087657600160078585604051610818929190611433565b908152604051908190036020018120600101805492151560ff19909316929092179091557fd81072d34d719da4a5ae18d5db92d390b8d0a245527b3039112fa980cee0834e9061086d90869086908690611524565b60405180910390a15b50505050565b61088461100f565b6001600160a01b0316610895610d5e565b6001600160a01b0316146108bb5760405162461bcd60e51b815260040161066d9061167d565b6003826040516108cb9190611443565b908152604051908190036020019020546108f75760405162461bcd60e51b815260040161066d906116da565b3360009081526004602090815260408083205480845260058352818420805483518186028101860190945280845291949390919083018282801561099857602002820191906000526020600020906000905b82829054906101000a900460ff16600d81111561097657634e487b7160e01b600052602160045260246000fd5b8152602060019283018181049485019490930390920291018084116109495790505b505050505090506000805b8251811015610a34578281815181106109cc57634e487b7160e01b600052603260045260246000fd5b6020026020010151600d8111156109f357634e487b7160e01b600052602160045260246000fd5b85600d811115610a1357634e487b7160e01b600052602160045260246000fd5b1415610a225760019150610a34565b80610a2c81611752565b9150506109a3565b5080610a525760405162461bcd60e51b815260040161066d90611656565b600385604051610a629190611443565b9081526020016040518091039020604051806040016040528086600d811115610a9b57634e487b7160e01b600052602160045260246000fd5b81524360209182015282546001818101855560009485529190932082516002909402018054929390929091839160ff19169083600d811115610aed57634e487b7160e01b600052602160045260246000fd5b02179055506020820151816001015550507f924873db50e5960d6e237a67bd481cd35f649d4ecbb172d5499bd0b8a851989b858533604051610b31939291906115b0565b60405180910390a15050505050565b610b4861100f565b6001600160a01b0316610b59610d5e565b6001600160a01b031614610b7f5760405162461bcd60e51b815260040161066d9061167d565b600880546001810182556000919091527ff3f7a9fe364faab93b216da50a3214154f22a0a2b415b23a84c8169e8b636ee30180546001600160a01b0319166001600160a01b0392909216919091179055565b600281565b60006060600283604051610bea9190611443565b908152602001604051809103902054600384604051610c099190611443565b908152602001604051809103902080805480602002602001604051908101604052809291908181526020016000905b82821015610cbc5760008481526020902060408051808201909152600284029091018054829060ff16600d811115610c8057634e487b7160e01b600052602160045260246000fd5b600d811115610c9f57634e487b7160e01b600052602160045260246000fd5b815260200160018201548152505081526020019060010190610c38565b50505050905091509150915091565b610cd361100f565b6001600160a01b0316610ce4610d5e565b6001600160a01b031614610d0a5760405162461bcd60e51b815260040161066d9061167d565b610d146000611013565b565b7f722f6341587eccff4e236840b2c6571211fb687822bad2b7c7b37b130d4c617981565b7f56109128f45dd89f29ec6e16ddca878d12e9aef78a8dbd2caa537128fce6500c81565b6000546001600160a01b031690565b60046020526000908152604090205481565b60008060078585604051610d94929190611433565b90815260408051918290036020908101909220546000908152600683528181206001600160a01b038716825290925290205460ff169150509392505050565b610ddb61100f565b6001600160a01b0316610dec610d5e565b6001600160a01b031614610e125760405162461bcd60e51b815260040161066d9061167d565b600382604051610e229190611443565b9081526040519081900360200190205415610e4f5760405162461bcd60e51b815260040161066d90611631565b600382604051610e5f9190611443565b90815260408051918290036020908101832083830190925260008084524382850152825460018082018555938252919020835160029092020180549092839160ff19169083600d811115610ec357634e487b7160e01b600052602160045260246000fd5b021790555060208201518160010155505080600283604051610ee59190611443565b9081526020016040518091039020819055507f069662d34c4fca879fc5556a8d35367de009ac745d8dae427eed8b8164e3095c828233604051610f2a9392919061157d565b60405180910390a15050565b7f790b481f3d8436972ed2b30ac1cacd05cadaf09877d2b8f61833ec142e78e18e81565b7f061cd7d15cdffa40c46709434394974d23a1fa1de25e8bd3810b54d419f7102e81565b600660209081526000928352604080842090915290825290205460ff1681565b610fa661100f565b6001600160a01b0316610fb7610d5e565b6001600160a01b031614610fdd5760405162461bcd60e51b815260040161066d9061167d565b6001600160a01b0381166110035760405162461bcd60e51b815260040161066d906115eb565b61100c81611013565b50565b3390565b600080546001600160a01b038381166001600160a01b0319831681178455604051919092169283917f8be0079c531659141344cd1fd0a4f28419497f9722a3daafe3b4186f6b6457e09190a35050565b604080516060810182526000808252602082018190529181019190915290565b80356001600160a01b038116811461109a57600080fd5b919050565b60008083601f8401126110b0578182fd5b50813567ffffffffffffffff8111156110c7578182fd5b6020830191508360208285010111156110df57600080fd5b9250929050565b600082601f8301126110f6578081fd5b813567ffffffffffffffff8082111561111157611111611779565b604051601f8301601f19168101602001828111828210171561113557611135611779565b60405282815284830160200186101561114c578384fd5b82602086016020830137918201602001929092529392505050565b600060208284031215611178578081fd5b6106ee82611083565b60008060408385031215611193578081fd5b61119c83611083565b946020939093013593505050565b600080604083850312156111bc578182fd5b823591506111cc60208401611083565b90509250929050565b600080604083850312156111e7578182fd5b50508035926020909101359150565b60008060208385031215611208578182fd5b823567ffffffffffffffff81111561121e578283fd5b61122a8582860161109f565b90969095509350505050565b60008060006040848603121561124a578081fd5b833567ffffffffffffffff811115611260578182fd5b61126c8682870161109f565b909450925061127f905060208501611083565b90509250925092565b60008060006040848603121561129c578283fd5b833567ffffffffffffffff8111156112b2578384fd5b6112be8682870161109f565b909790965060209590950135949350505050565b6000602082840312156112e3578081fd5b813567ffffffffffffffff8111156112f9578182fd5b611305848285016110e6565b949350505050565b6000806040838503121561131f578182fd5b823567ffffffffffffffff811115611335578283fd5b611341858286016110e6565b95602094909401359450505050565b60008060408385031215611362578182fd5b823567ffffffffffffffff811115611378578283fd5b611384858286016110e6565b9250506020830135600e8110611398578182fd5b809150509250929050565b6000602082840312156113b4578081fd5b5035919050565b600e81106113d957634e487b7160e01b600052602160045260246000fd5b9052565b60008284528282602086013780602084860101526020601f19601f85011685010190509392505050565b6000815180845261141f816020860160208601611726565b601f01601f19169290920160200192915050565b6000828483379101908152919050565b60008251611455818460208701611726565b9190910192915050565b6001600160a01b0391909116815260200190565b901515815260200190565b90815260200190565b60006040808301858452602082818601528186518084526060870191508288019350855b818110156114d75784516114c08482516113bb565b8401518385015293830193918501916001016114ab565b509098975050505050505050565b9283529015156020830152604082015260600190565b602081016105a782846113bb565b6040810161151782856113bb565b8260208301529392505050565b6000604082526115386040830185876113dd565b9050826020830152949350505050565b60006060825261155c6060830186886113dd565b6020830194909452506001600160a01b039190911660409091015292915050565b6000606082526115906060830186611407565b6020830194909452506001600160a01b0391909116604090910152919050565b6000606082526115c36060830186611407565b90506115d260208301856113bb565b6001600160a01b03929092166040919091015292915050565b60208082526026908201527f4f776e61626c653a206e6577206f776e657220697320746865207a65726f206160408201526564647265737360d01b606082015260800190565b6020808252600b908201526a13dc99195c88195e1a5cdd60aa1b604082015260600190565b6020808252600d908201526c2737903832b936b4b9b9b4b7b760991b604082015260600190565b6020808252818101527f4f776e61626c653a2063616c6c6572206973206e6f7420746865206f776e6572604082015260600190565b6020808252600e908201526d2737ba103832b936b4b9b9b4b7b760911b604082015260600190565b6020808252600f908201526e13dc99195c881b9bdd08195e1a5cdd608a1b604082015260600190565b815181526020808301511515908201526040918201519181019190915260600190565b60005b83811015611741578181015183820152602001611729565b838111156108765750506000910152565b600060001982141561177257634e487b7160e01b81526011600452602481fd5b5060010190565b634e487b7160e01b600052604160045260246000fdfea2646970667358221220c556e6c53f081f975aee9f4fa1438c166201f6277f70d2917b6dc3d95a358d3364736f6c63430008000033",
  "linkReferences": {},
  "deployedLinkReferences": {}
}